{
  "contractName": "BasicToken",
  "abi": [
    {
      "inputs": [
        {
          "internalType": "string",
          "name": "_name",
          "type": "string"
        },
        {
          "internalType": "string",
          "name": "_symbol",
          "type": "string"
        }
      ],
      "stateMutability": "nonpayable",
      "type": "constructor"
    },
    {
      "anonymous": false,
      "inputs": [
        {
          "indexed": true,
          "internalType": "address",
          "name": "owner",
          "type": "address"
        },
        {
          "indexed": true,
          "internalType": "address",
          "name": "spender",
          "type": "address"
        },
        {
          "indexed": false,
          "internalType": "uint256",
          "name": "value",
          "type": "uint256"
        }
      ],
      "name": "Approval",
      "type": "event"
    },
    {
      "anonymous": false,
      "inputs": [
        {
          "indexed": true,
          "internalType": "address",
          "name": "from",
          "type": "address"
        },
        {
          "indexed": true,
          "internalType": "address",
          "name": "to",
          "type": "address"
        },
        {
          "indexed": false,
          "internalType": "uint256",
          "name": "value",
          "type": "uint256"
        }
      ],
      "name": "Transfer",
      "type": "event"
    },
    {
      "inputs": [
        {
          "internalType": "address",
          "name": "",
          "type": "address"
        },
        {
          "internalType": "address",
          "name": "",
          "type": "address"
        }
      ],
      "name": "allowed",
      "outputs": [
        {
          "internalType": "uint256",
          "name": "",
          "type": "uint256"
        }
      ],
      "stateMutability": "view",
      "type": "function"
    },
    {
      "inputs": [
        {
          "internalType": "address",
          "name": "",
          "type": "address"
        }
      ],
      "name": "balances",
      "outputs": [
        {
          "internalType": "uint256",
          "name": "",
          "type": "uint256"
        }
      ],
      "stateMutability": "view",
      "type": "function"
    },
    {
      "inputs": [],
      "name": "decimals",
      "outputs": [
        {
          "internalType": "uint8",
          "name": "",
          "type": "uint8"
        }
      ],
      "stateMutability": "view",
      "type": "function"
    },
    {
      "inputs": [],
      "name": "name",
      "outputs": [
        {
          "internalType": "string",
          "name": "",
          "type": "string"
        }
      ],
      "stateMutability": "view",
      "type": "function"
    },
    {
      "inputs": [],
      "name": "symbol",
      "outputs": [
        {
          "internalType": "string",
          "name": "",
          "type": "string"
        }
      ],
      "stateMutability": "view",
      "type": "function"
    },
    {
      "inputs": [],
      "name": "totalSupply",
      "outputs": [
        {
          "internalType": "uint256",
          "name": "",
          "type": "uint256"
        }
      ],
      "stateMutability": "view",
      "type": "function"
    },
    {
      "inputs": [
        {
          "internalType": "address",
          "name": "tokenOwner",
          "type": "address"
        }
      ],
      "name": "balanceOf",
      "outputs": [
        {
          "internalType": "uint256",
          "name": "",
          "type": "uint256"
        }
      ],
      "stateMutability": "view",
      "type": "function"
    },
    {
      "inputs": [
        {
          "internalType": "address",
          "name": "receiver",
          "type": "address"
        },
        {
          "internalType": "uint256",
          "name": "numTokens",
          "type": "uint256"
        }
      ],
      "name": "transfer",
      "outputs": [
        {
          "internalType": "bool",
          "name": "",
          "type": "bool"
        }
      ],
      "stateMutability": "nonpayable",
      "type": "function"
    },
    {
      "inputs": [
        {
          "internalType": "address",
          "name": "delegate",
          "type": "address"
        },
        {
          "internalType": "uint256",
          "name": "numTokens",
          "type": "uint256"
        }
      ],
      "name": "approve",
      "outputs": [
        {
          "internalType": "bool",
          "name": "",
          "type": "bool"
        }
      ],
      "stateMutability": "nonpayable",
      "type": "function"
    },
    {
      "inputs": [
        {
          "internalType": "address",
          "name": "owner",
          "type": "address"
        },
        {
          "internalType": "address",
          "name": "delegate",
          "type": "address"
        }
      ],
      "name": "allowance",
      "outputs": [
        {
          "internalType": "uint256",
          "name": "",
          "type": "uint256"
        }
      ],
      "stateMutability": "view",
      "type": "function"
    },
    {
      "inputs": [
        {
          "internalType": "address",
          "name": "owner",
          "type": "address"
        },
        {
          "internalType": "address",
          "name": "buyer",
          "type": "address"
        },
        {
          "internalType": "uint256",
          "name": "numTokens",
          "type": "uint256"
        }
      ],
      "name": "transferFrom",
      "outputs": [
        {
          "internalType": "bool",
          "name": "",
          "type": "bool"
        }
      ],
      "stateMutability": "nonpayable",
      "type": "function"
    }
  ],
  "bytecode": "0x6080604052678ac7230489e800006004553480156200001d57600080fd5b50604051620013f5380380620013f58339818101604052810190620000439190620001e5565b81600090805190602001906200005b929190620000c3565b50806001908051906020019062000074929190620000c3565b50600454600260003373ffffffffffffffffffffffffffffffffffffffff1673ffffffffffffffffffffffffffffffffffffffff16815260200190815260200160002081905550505062000389565b828054620000d190620002f5565b90600052602060002090601f016020900481019282620000f5576000855562000141565b82601f106200011057805160ff191683800117855562000141565b8280016001018555821562000141579182015b828111156200014057825182559160200191906001019062000123565b5b50905062000150919062000154565b5090565b5b808211156200016f57600081600090555060010162000155565b5090565b60006200018a62000184846200028c565b62000258565b905082815260208101848484011115620001a357600080fd5b620001b0848285620002bf565b509392505050565b600082601f830112620001ca57600080fd5b8151620001dc84826020860162000173565b91505092915050565b60008060408385031215620001f957600080fd5b600083015167ffffffffffffffff8111156200021457600080fd5b6200022285828601620001b8565b925050602083015167ffffffffffffffff8111156200024057600080fd5b6200024e85828601620001b8565b9150509250929050565b6000604051905081810181811067ffffffffffffffff821117156200028257620002816200035a565b5b8060405250919050565b600067ffffffffffffffff821115620002aa57620002a96200035a565b5b601f19601f8301169050602081019050919050565b60005b83811015620002df578082015181840152602081019050620002c2565b83811115620002ef576000848401525b50505050565b600060028204905060018216806200030e57607f821691505b602082108114156200032557620003246200032b565b5b50919050565b7f4e487b7100000000000000000000000000000000000000000000000000000000600052602260045260246000fd5b7f4e487b7100000000000000000000000000000000000000000000000000000000600052604160045260246000fd5b61105c80620003996000396000f3fe608060405234801561001057600080fd5b50600436106100a95760003560e01c8063313ce56711610071578063313ce5671461017a5780635c6581651461019857806370a08231146101c857806395d89b41146101f8578063a9059cbb14610216578063dd62ed3e14610246576100a9565b806306fdde03146100ae578063095ea7b3146100cc57806318160ddd146100fc57806323b872dd1461011a57806327e235e31461014a575b600080fd5b6100b6610276565b6040516100c39190610d91565b60405180910390f35b6100e660048036038101906100e19190610c2e565b610304565b6040516100f39190610d76565b60405180910390f35b6101046103f6565b6040516101119190610df3565b60405180910390f35b610134600480360381019061012f9190610bdf565b610400565b6040516101419190610d76565b60405180910390f35b610164600480360381019061015f9190610b7a565b6107d7565b6040516101719190610df3565b60405180910390f35b6101826107ef565b60405161018f9190610e0e565b60405180910390f35b6101b260048036038101906101ad9190610ba3565b6107f4565b6040516101bf9190610df3565b60405180910390f35b6101e260048036038101906101dd9190610b7a565b610819565b6040516101ef9190610df3565b60405180910390f35b610200610862565b60405161020d9190610d91565b60405180910390f35b610230600480360381019061022b9190610c2e565b6108f0565b60405161023d9190610d76565b60405180910390f35b610260600480360381019061025b9190610ba3565b610ac9565b60405161026d9190610df3565b60405180910390f35b6000805461028390610f57565b80601f01602080910402602001604051908101604052809291908181526020018280546102af90610f57565b80156102fc5780601f106102d1576101008083540402835291602001916102fc565b820191906000526020600020905b8154815290600101906020018083116102df57829003601f168201915b505050505081565b600081600360003373ffffffffffffffffffffffffffffffffffffffff1673ffffffffffffffffffffffffffffffffffffffff16815260200190815260200160002060008573ffffffffffffffffffffffffffffffffffffffff1673ffffffffffffffffffffffffffffffffffffffff168152602001908152602001600020819055508273ffffffffffffffffffffffffffffffffffffffff163373ffffffffffffffffffffffffffffffffffffffff167f8c5be1e5ebec7d5bd14f71427d1e84f3dd0314c0f7b2291e5b200ac8c7c3b925846040516103e49190610df3565b60405180910390a36001905092915050565b6000600454905090565b6000600260008573ffffffffffffffffffffffffffffffffffffffff1673ffffffffffffffffffffffffffffffffffffffff16815260200190815260200160002054821115610484576040517f08c379a000000000000000000000000000000000000000000000000000000000815260040161047b90610dd3565b60405180910390fd5b600360008573ffffffffffffffffffffffffffffffffffffffff1673ffffffffffffffffffffffffffffffffffffffff16815260200190815260200160002060003373ffffffffffffffffffffffffffffffffffffffff1673ffffffffffffffffffffffffffffffffffffffff16815260200190815260200160002054821115610543576040517f08c379a000000000000000000000000000000000000000000000000000000000815260040161053a90610db3565b60405180910390fd5b81600260008673ffffffffffffffffffffffffffffffffffffffff1673ffffffffffffffffffffffffffffffffffffffff1681526020019081526020016000205461058e9190610e9b565b600260008673ffffffffffffffffffffffffffffffffffffffff1673ffffffffffffffffffffffffffffffffffffffff1681526020019081526020016000208190555081600360008673ffffffffffffffffffffffffffffffffffffffff1673ffffffffffffffffffffffffffffffffffffffff16815260200190815260200160002060003373ffffffffffffffffffffffffffffffffffffffff1673ffffffffffffffffffffffffffffffffffffffff168152602001908152602001600020546106599190610e9b565b600360008673ffffffffffffffffffffffffffffffffffffffff1673ffffffffffffffffffffffffffffffffffffffff16815260200190815260200160002060003373ffffffffffffffffffffffffffffffffffffffff1673ffffffffffffffffffffffffffffffffffffffff1681526020019081526020016000208190555081600260008573ffffffffffffffffffffffffffffffffffffffff1673ffffffffffffffffffffffffffffffffffffffff168152602001908152602001600020546107249190610e45565b600260008573ffffffffffffffffffffffffffffffffffffffff1673ffffffffffffffffffffffffffffffffffffffff168152602001908152602001600020819055508273ffffffffffffffffffffffffffffffffffffffff168473ffffffffffffffffffffffffffffffffffffffff167fddf252ad1be2c89b69c2b068fc378daa952ba7f163c4a11628f55a4df523b3ef846040516107c49190610df3565b60405180910390a3600190509392505050565b60026020528060005260406000206000915090505481565b601281565b6003602052816000526040600020602052806000526040600020600091509150505481565b6000600260008373ffffffffffffffffffffffffffffffffffffffff1673ffffffffffffffffffffffffffffffffffffffff168152602001908152602001600020549050919050565b6001805461086f90610f57565b80601f016020809104026020016040519081016040528092919081815260200182805461089b90610f57565b80156108e85780601f106108bd576101008083540402835291602001916108e8565b820191906000526020600020905b8154815290600101906020018083116108cb57829003601f168201915b505050505081565b6000600260003373ffffffffffffffffffffffffffffffffffffffff1673ffffffffffffffffffffffffffffffffffffffff1681526020019081526020016000205482111561093e57600080fd5b81600260003373ffffffffffffffffffffffffffffffffffffffff1673ffffffffffffffffffffffffffffffffffffffff168152602001908152602001600020546109899190610e9b565b600260003373ffffffffffffffffffffffffffffffffffffffff1673ffffffffffffffffffffffffffffffffffffffff1681526020019081526020016000208190555081600260008573ffffffffffffffffffffffffffffffffffffffff1673ffffffffffffffffffffffffffffffffffffffff16815260200190815260200160002054610a179190610e45565b600260008573ffffffffffffffffffffffffffffffffffffffff1673ffffffffffffffffffffffffffffffffffffffff168152602001908152602001600020819055508273ffffffffffffffffffffffffffffffffffffffff163373ffffffffffffffffffffffffffffffffffffffff167fddf252ad1be2c89b69c2b068fc378daa952ba7f163c4a11628f55a4df523b3ef84604051610ab79190610df3565b60405180910390a36001905092915050565b6000600360008473ffffffffffffffffffffffffffffffffffffffff1673ffffffffffffffffffffffffffffffffffffffff16815260200190815260200160002060008373ffffffffffffffffffffffffffffffffffffffff1673ffffffffffffffffffffffffffffffffffffffff16815260200190815260200160002054905092915050565b600081359050610b5f81610ff8565b92915050565b600081359050610b748161100f565b92915050565b600060208284031215610b8c57600080fd5b6000610b9a84828501610b50565b91505092915050565b60008060408385031215610bb657600080fd5b6000610bc485828601610b50565b9250506020610bd585828601610b50565b9150509250929050565b600080600060608486031215610bf457600080fd5b6000610c0286828701610b50565b9350506020610c1386828701610b50565b9250506040610c2486828701610b65565b9150509250925092565b60008060408385031215610c4157600080fd5b6000610c4f85828601610b50565b9250506020610c6085828601610b65565b9150509250929050565b610c7381610ee1565b82525050565b6000610c8482610e29565b610c8e8185610e34565b9350610c9e818560208601610f24565b610ca781610fe7565b840191505092915050565b6000610cbf601983610e34565b91507f45524332303a204e6f7420656e6f75676820616c6c6f776564000000000000006000830152602082019050919050565b6000610cff602183610e34565b91507f45524332303a204f776e6572206e6f742068617320656e6f75676820746f6b6560008301527f6e000000000000000000000000000000000000000000000000000000000000006020830152604082019050919050565b610d6181610f0d565b82525050565b610d7081610f17565b82525050565b6000602082019050610d8b6000830184610c6a565b92915050565b60006020820190508181036000830152610dab8184610c79565b905092915050565b60006020820190508181036000830152610dcc81610cb2565b9050919050565b60006020820190508181036000830152610dec81610cf2565b9050919050565b6000602082019050610e086000830184610d58565b92915050565b6000602082019050610e236000830184610d67565b92915050565b600081519050919050565b600082825260208201905092915050565b6000610e5082610f0d565b9150610e5b83610f0d565b9250827fffffffffffffffffffffffffffffffffffffffffffffffffffffffffffffffff03821115610e9057610e8f610f89565b5b828201905092915050565b6000610ea682610f0d565b9150610eb183610f0d565b925082821015610ec457610ec3610f89565b5b828203905092915050565b6000610eda82610eed565b9050919050565b60008115159050919050565b600073ffffffffffffffffffffffffffffffffffffffff82169050919050565b6000819050919050565b600060ff82169050919050565b60005b83811015610f42578082015181840152602081019050610f27565b83811115610f51576000848401525b50505050565b60006002820490506001821680610f6f57607f821691505b60208210811415610f8357610f82610fb8565b5b50919050565b7f4e487b7100000000000000000000000000000000000000000000000000000000600052601160045260246000fd5b7f4e487b7100000000000000000000000000000000000000000000000000000000600052602260045260246000fd5b6000601f19601f8301169050919050565b61100181610ecf565b811461100c57600080fd5b50565b61101881610f0d565b811461102357600080fd5b5056fea264697066735822122096297a25d6c3df9c21b7cb588a2bf423bb4d1d3157fdc1f3f2ce3f4c76abea8b64736f6c63430008000033",
  "immutableReferences": {},
  "source": "pragma solidity ^0.8.0;\n\ninterface IERC20 {\n\n    function totalSupply() external view returns (uint256);\n    function balanceOf(address account) external view returns (uint256);\n    function allowance(address owner, address spender) external view returns (uint256);\n\n    function transfer(address recipient, uint256 amount) external returns (bool);\n    function approve(address spender, uint256 amount) external returns (bool);\n    function transferFrom(address sender, address recipient, uint256 amount) external returns (bool);\n\n\n    event Transfer(address indexed from, address indexed to, uint256 value);\n    event Approval(address indexed owner, address indexed spender, uint256 value);\n}\n\ncontract BasicToken is IERC20 {\n\n    string public name;\n    string public symbol;\n    uint8 public constant decimals = 18;\n\n\n    mapping(address => uint256) public balances;\n\n    mapping(address => mapping (address => uint256)) public allowed;\n\n    uint256 totalSupply_ = 10 ether;\n\n\n   constructor(string memory _name, string memory _symbol) {\n        name = _name;\n        symbol = _symbol;\n\t    balances[msg.sender] = totalSupply_;\n    }\n\n    function totalSupply() public override view returns (uint256) {\n\treturn totalSupply_;\n    }\n\n    function balanceOf(address tokenOwner) public override view returns (uint256) {\n        return balances[tokenOwner];\n    }\n\n    function transfer(address receiver, uint256 numTokens) public override returns (bool) {\n        require(numTokens <= balances[msg.sender]);\n        balances[msg.sender] = balances[msg.sender]-numTokens;\n        balances[receiver] = balances[receiver]+numTokens;\n        emit Transfer(msg.sender, receiver, numTokens);\n        return true;\n    }\n\n    function approve(address delegate, uint256 numTokens) public override returns (bool) {\n        allowed[msg.sender][delegate] = numTokens;\n        emit Approval(msg.sender, delegate, numTokens);\n        return true;\n    }\n\n    function allowance(address owner, address delegate) public override view returns (uint) {\n        return allowed[owner][delegate];\n    }\n\n    function transferFrom(address owner, address buyer, uint256 numTokens) public override returns (bool) {\n        require(numTokens <= balances[owner], \"ERC20: Owner not has enough token\");\n        require(numTokens <= allowed[owner][msg.sender], \"ERC20: Not enough allowed\");\n\n        balances[owner] = balances[owner]-numTokens;\n        allowed[owner][msg.sender] = allowed[owner][msg.sender]-numTokens;\n        balances[buyer] = balances[buyer]+numTokens;\n        emit Transfer(owner, buyer, numTokens);\n        return true;\n    }\n}\n",
  "sourcePath": "/home/dan3002/Coding/FUNiX-Swap/contracts/IERC20.sol",
  "compiler": {
    "name": "solc",
    "version": "0.8.0+commit.c7dfd78e.Emscripten.clang"
  },
  "schemaVersion": "3.4.13",
  "updatedAt": "2023-04-16T21:36:38.347Z",
  "devdoc": {
    "kind": "dev",
    "methods": {},
    "version": 1
  },
  "userdoc": {
    "kind": "user",
    "methods": {},
    "version": 1
  }
}