{
  "contractName": "Exchange",
  "abi": [
    {
      "inputs": [],
      "stateMutability": "nonpayable",
      "type": "constructor"
    },
    {
      "inputs": [],
      "name": "owner",
      "outputs": [
        {
          "internalType": "address",
          "name": "",
          "type": "address"
        }
      ],
      "stateMutability": "view",
      "type": "function",
      "constant": true
    },
    {
      "inputs": [
        {
          "internalType": "address",
          "name": "",
          "type": "address"
        }
      ],
      "name": "reserves",
      "outputs": [
        {
          "internalType": "contract Reserve",
          "name": "",
          "type": "address"
        }
      ],
      "stateMutability": "view",
      "type": "function",
      "constant": true
    },
    {
      "stateMutability": "payable",
      "type": "receive",
      "payable": true
    },
    {
      "inputs": [
        {
          "internalType": "address",
          "name": "reserve",
          "type": "address"
        },
        {
          "internalType": "address",
          "name": "token",
          "type": "address"
        }
      ],
      "name": "addReserve",
      "outputs": [],
      "stateMutability": "nonpayable",
      "type": "function"
    },
    {
      "inputs": [
        {
          "internalType": "address",
          "name": "srcToken",
          "type": "address"
        },
        {
          "internalType": "address",
          "name": "destToken",
          "type": "address"
        },
        {
          "internalType": "uint256",
          "name": "amount",
          "type": "uint256"
        }
      ],
      "name": "exchange",
      "outputs": [],
      "stateMutability": "payable",
      "type": "function",
      "payable": true
    },
    {
      "inputs": [
        {
          "internalType": "address",
          "name": "token",
          "type": "address"
        }
      ],
      "name": "getReserve",
      "outputs": [
        {
          "internalType": "address",
          "name": "",
          "type": "address"
        }
      ],
      "stateMutability": "view",
      "type": "function",
      "constant": true
    },
    {
      "inputs": [
        {
          "internalType": "address",
          "name": "srcToken",
          "type": "address"
        },
        {
          "internalType": "address",
          "name": "destToken",
          "type": "address"
        }
      ],
      "name": "getExchangeRate",
      "outputs": [
        {
          "internalType": "uint256",
          "name": "",
          "type": "uint256"
        }
      ],
      "stateMutability": "view",
      "type": "function",
      "constant": true
    }
  ],
  "bytecode": "0x608060405273eeeeeeeeeeeeeeeeeeeeeeeeeeeeeeeeeeeeeeee600260006101000a81548173ffffffffffffffffffffffffffffffffffffffff021916908373ffffffffffffffffffffffffffffffffffffffff16021790555034801561006557600080fd5b50336000806101000a81548173ffffffffffffffffffffffffffffffffffffffff021916908373ffffffffffffffffffffffffffffffffffffffff16021790555061185f806100b56000396000f3fe6080604052600436106100595760003560e01c806319732621146100655780638da5cb5b1461008e578063969e3756146100b9578063baaa61be146100d5578063c9a396e914610112578063d66bd5241461014f57610060565b3661006057005b600080fd5b34801561007157600080fd5b5061008c6004803603810190610087919061123a565b61018c565b005b34801561009a57600080fd5b506100a361029c565b6040516100b09190611576565b60405180910390f35b6100d360048036038101906100ce9190611276565b6102c0565b005b3480156100e157600080fd5b506100fc60048036038101906100f7919061123a565b610cde565b60405161010991906116ec565b60405180910390f35b34801561011e57600080fd5b5061013960048036038101906101349190611211565b611121565b6040516101469190611576565b60405180910390f35b34801561015b57600080fd5b5061017660048036038101906101719190611211565b61118a565b60405161018391906115f1565b60405180910390f35b60008054906101000a900473ffffffffffffffffffffffffffffffffffffffff1673ffffffffffffffffffffffffffffffffffffffff163373ffffffffffffffffffffffffffffffffffffffff161461021a576040517f08c379a00000000000000000000000000000000000000000000000000000000081526004016102119061160c565b60405180910390fd5b81600160008373ffffffffffffffffffffffffffffffffffffffff1673ffffffffffffffffffffffffffffffffffffffff16815260200190815260200160002060006101000a81548173ffffffffffffffffffffffffffffffffffffffff021916908373ffffffffffffffffffffffffffffffffffffffff1602179055505050565b60008054906101000a900473ffffffffffffffffffffffffffffffffffffffff1681565b8173ffffffffffffffffffffffffffffffffffffffff168373ffffffffffffffffffffffffffffffffffffffff16141561032f576040517f08c379a0000000000000000000000000000000000000000000000000000000008152600401610326906116cc565b60405180910390fd5b60008111610372576040517f08c379a00000000000000000000000000000000000000000000000000000000081526004016103699061162c565b60405180910390fd5b6000600160008573ffffffffffffffffffffffffffffffffffffffff1673ffffffffffffffffffffffffffffffffffffffff16815260200190815260200160002060009054906101000a900473ffffffffffffffffffffffffffffffffffffffff1690506000600160008573ffffffffffffffffffffffffffffffffffffffff1673ffffffffffffffffffffffffffffffffffffffff16815260200190815260200160002060009054906101000a900473ffffffffffffffffffffffffffffffffffffffff169050600260009054906101000a900473ffffffffffffffffffffffffffffffffffffffff1673ffffffffffffffffffffffffffffffffffffffff168573ffffffffffffffffffffffffffffffffffffffff161415610661578234146104d2576040517f08c379a00000000000000000000000000000000000000000000000000000000081526004016104c99061166c565b60405180910390fd5b600073ffffffffffffffffffffffffffffffffffffffff168573ffffffffffffffffffffffffffffffffffffffff161415610542576040517f08c379a00000000000000000000000000000000000000000000000000000000081526004016105399061168c565b60405180910390fd5b600084905060008273ffffffffffffffffffffffffffffffffffffffff1663a4821719866040518263ffffffff1660e01b81526004016020604051808303818588803b15801561059157600080fd5b505af11580156105a5573d6000803e3d6000fd5b50505050506040513d601f19601f820116820180604052508101906105ca91906112ee565b90508173ffffffffffffffffffffffffffffffffffffffff1663a9059cbb33836040518363ffffffff1660e01b81526004016106079291906115c8565b602060405180830381600087803b15801561062157600080fd5b505af1158015610635573d6000803e3d6000fd5b505050506040513d601f19601f8201168201806040525081019061065991906112c5565b505050610cd7565b600260009054906101000a900473ffffffffffffffffffffffffffffffffffffffff1673ffffffffffffffffffffffffffffffffffffffff168473ffffffffffffffffffffffffffffffffffffffff16141561092757600073ffffffffffffffffffffffffffffffffffffffff168473ffffffffffffffffffffffffffffffffffffffff161415610727576040517f08c379a000000000000000000000000000000000000000000000000000000000815260040161071e906116ac565b60405180910390fd5b60008590508073ffffffffffffffffffffffffffffffffffffffff166323b872dd3330876040518463ffffffff1660e01b815260040161076993929190611591565b602060405180830381600087803b15801561078357600080fd5b505af1158015610797573d6000803e3d6000fd5b505050506040513d601f19601f820116820180604052508101906107bb91906112c5565b508073ffffffffffffffffffffffffffffffffffffffff1663095ea7b384866040518363ffffffff1660e01b81526004016107f79291906115c8565b602060405180830381600087803b15801561081157600080fd5b505af1158015610825573d6000803e3d6000fd5b505050506040513d601f19601f8201168201806040525081019061084991906112c5565b5060008373ffffffffffffffffffffffffffffffffffffffff16632397e4d7866040518263ffffffff1660e01b815260040161088591906116ec565b602060405180830381600087803b15801561089f57600080fd5b505af11580156108b3573d6000803e3d6000fd5b505050506040513d601f19601f820116820180604052508101906108d791906112ee565b90503373ffffffffffffffffffffffffffffffffffffffff166108fc829081150290604051600060405180830381858888f1935050505015801561091f573d6000803e3d6000fd5b505050610cd6565b600073ffffffffffffffffffffffffffffffffffffffff168573ffffffffffffffffffffffffffffffffffffffff161415610997576040517f08c379a000000000000000000000000000000000000000000000000000000000815260040161098e906116ac565b60405180910390fd5b600073ffffffffffffffffffffffffffffffffffffffff168473ffffffffffffffffffffffffffffffffffffffff161415610a07576040517f08c379a00000000000000000000000000000000000000000000000000000000081526004016109fe9061164c565b60405180910390fd5b600085905060008590508173ffffffffffffffffffffffffffffffffffffffff166323b872dd3330886040518463ffffffff1660e01b8152600401610a4e93929190611591565b602060405180830381600087803b158015610a6857600080fd5b505af1158015610a7c573d6000803e3d6000fd5b505050506040513d601f19601f82011682018060405250810190610aa091906112c5565b508173ffffffffffffffffffffffffffffffffffffffff1663095ea7b385876040518363ffffffff1660e01b8152600401610adc9291906115c8565b602060405180830381600087803b158015610af657600080fd5b505af1158015610b0a573d6000803e3d6000fd5b505050506040513d601f19601f82011682018060405250810190610b2e91906112c5565b5060008473ffffffffffffffffffffffffffffffffffffffff16632397e4d7876040518263ffffffff1660e01b8152600401610b6a91906116ec565b602060405180830381600087803b158015610b8457600080fd5b505af1158015610b98573d6000803e3d6000fd5b505050506040513d601f19601f82011682018060405250810190610bbc91906112ee565b905060008473ffffffffffffffffffffffffffffffffffffffff1663a4821719836040518263ffffffff1660e01b81526004016020604051808303818588803b158015610c0857600080fd5b505af1158015610c1c573d6000803e3d6000fd5b50505050506040513d601f19601f82011682018060405250810190610c4191906112ee565b90508273ffffffffffffffffffffffffffffffffffffffff1663a9059cbb33836040518363ffffffff1660e01b8152600401610c7e9291906115c8565b602060405180830381600087803b158015610c9857600080fd5b505af1158015610cac573d6000803e3d6000fd5b505050506040513d601f19601f82011682018060405250810190610cd091906112c5565b50505050505b5b5050505050565b6000600260009054906101000a900473ffffffffffffffffffffffffffffffffffffffff1673ffffffffffffffffffffffffffffffffffffffff168373ffffffffffffffffffffffffffffffffffffffff161415610e1a57600160008373ffffffffffffffffffffffffffffffffffffffff1673ffffffffffffffffffffffffffffffffffffffff16815260200190815260200160002060009054906101000a900473ffffffffffffffffffffffffffffffffffffffff1673ffffffffffffffffffffffffffffffffffffffff16633d35d7ba6040518163ffffffff1660e01b815260040160206040518083038186803b158015610ddb57600080fd5b505afa158015610def573d6000803e3d6000fd5b505050506040513d601f19601f82011682018060405250810190610e1391906112ee565b905061111b565b600260009054906101000a900473ffffffffffffffffffffffffffffffffffffffff1673ffffffffffffffffffffffffffffffffffffffff168273ffffffffffffffffffffffffffffffffffffffff161415610f5457600160008473ffffffffffffffffffffffffffffffffffffffff1673ffffffffffffffffffffffffffffffffffffffff16815260200190815260200160002060009054906101000a900473ffffffffffffffffffffffffffffffffffffffff1673ffffffffffffffffffffffffffffffffffffffff1663226fd9eb6040518163ffffffff1660e01b815260040160206040518083038186803b158015610f1557600080fd5b505afa158015610f29573d6000803e3d6000fd5b505050506040513d601f19601f82011682018060405250810190610f4d91906112ee565b905061111b565b600160008373ffffffffffffffffffffffffffffffffffffffff1673ffffffffffffffffffffffffffffffffffffffff16815260200190815260200160002060009054906101000a900473ffffffffffffffffffffffffffffffffffffffff1673ffffffffffffffffffffffffffffffffffffffff16633d35d7ba6040518163ffffffff1660e01b815260040160206040518083038186803b158015610ff957600080fd5b505afa15801561100d573d6000803e3d6000fd5b505050506040513d601f19601f8201168201806040525081019061103191906112ee565b600160008573ffffffffffffffffffffffffffffffffffffffff1673ffffffffffffffffffffffffffffffffffffffff16815260200190815260200160002060009054906101000a900473ffffffffffffffffffffffffffffffffffffffff1673ffffffffffffffffffffffffffffffffffffffff1663226fd9eb6040518163ffffffff1660e01b815260040160206040518083038186803b1580156110d657600080fd5b505afa1580156110ea573d6000803e3d6000fd5b505050506040513d601f19601f8201168201806040525081019061110e91906112ee565b6111189190611718565b90505b92915050565b6000600160008373ffffffffffffffffffffffffffffffffffffffff1673ffffffffffffffffffffffffffffffffffffffff16815260200190815260200160002060009054906101000a900473ffffffffffffffffffffffffffffffffffffffff169050919050565b60016020528060005260406000206000915054906101000a900473ffffffffffffffffffffffffffffffffffffffff1681565b6000813590506111cc816117e4565b92915050565b6000815190506111e1816117fb565b92915050565b6000813590506111f681611812565b92915050565b60008151905061120b81611812565b92915050565b60006020828403121561122357600080fd5b6000611231848285016111bd565b91505092915050565b6000806040838503121561124d57600080fd5b600061125b858286016111bd565b925050602061126c858286016111bd565b9150509250929050565b60008060006060848603121561128b57600080fd5b6000611299868287016111bd565b93505060206112aa868287016111bd565b92505060406112bb868287016111e7565b9150509250925092565b6000602082840312156112d757600080fd5b60006112e5848285016111d2565b91505092915050565b60006020828403121561130057600080fd5b600061130e848285016111fc565b91505092915050565b61132081611749565b82525050565b61132f81611791565b82525050565b6000611342602183611707565b91507f4f6e6c79206f776e65722063616e2063616c6c20746869732066756e6374696f60008301527f6e000000000000000000000000000000000000000000000000000000000000006020830152604082019050919050565b60006113a8601d83611707565b91507f416d6f756e74206d7573742062652067726561746572207468616e20300000006000830152602082019050919050565b60006113e8601a83611707565b91507f646573745265736572766520646f6573206e6f742065786973740000000000006000830152602082019050919050565b6000611428602183611707565b91507f416d6f756e74206d75737420626520657175616c20746f206d73672e76616c7560008301527f65000000000000000000000000000000000000000000000000000000000000006020830152604082019050919050565b600061148e601783611707565b91507f737263546f6b656e20646f6573206e6f742065786973740000000000000000006000830152602082019050919050565b60006114ce601983611707565b91507f7372635265736572766520646f6573206e6f74206578697374000000000000006000830152602082019050919050565b600061150e602883611707565b91507f737263546f6b656e20616e642064657374546f6b656e206d757374206265206460008301527f6966666572656e740000000000000000000000000000000000000000000000006020830152604082019050919050565b61157081611787565b82525050565b600060208201905061158b6000830184611317565b92915050565b60006060820190506115a66000830186611317565b6115b36020830185611317565b6115c06040830184611567565b949350505050565b60006040820190506115dd6000830185611317565b6115ea6020830184611567565b9392505050565b60006020820190506116066000830184611326565b92915050565b6000602082019050818103600083015261162581611335565b9050919050565b600060208201905081810360008301526116458161139b565b9050919050565b60006020820190508181036000830152611665816113db565b9050919050565b600060208201905081810360008301526116858161141b565b9050919050565b600060208201905081810360008301526116a581611481565b9050919050565b600060208201905081810360008301526116c5816114c1565b9050919050565b600060208201905081810360008301526116e581611501565b9050919050565b60006020820190506117016000830184611567565b92915050565b600082825260208201905092915050565b600061172382611787565b915061172e83611787565b92508261173e5761173d6117b5565b5b828204905092915050565b600061175482611767565b9050919050565b60008115159050919050565b600073ffffffffffffffffffffffffffffffffffffffff82169050919050565b6000819050919050565b600061179c826117a3565b9050919050565b60006117ae82611767565b9050919050565b7f4e487b7100000000000000000000000000000000000000000000000000000000600052601260045260246000fd5b6117ed81611749565b81146117f857600080fd5b50565b6118048161175b565b811461180f57600080fd5b50565b61181b81611787565b811461182657600080fd5b5056fea26469706673582212205d86fda377e8e1d57493778d3441226715b92e6f750640839548f0034ef51b3b64736f6c63430008000033",
  "immutableReferences": {},
  "source": "pragma solidity ^0.8.0;\n\nimport \"@openzeppelin/contracts/token/ERC20/ERC20.sol\";\nimport \"./Reserve.sol\";\n\ncontract Exchange {\n\taddress public owner;\n\tmapping (address => Reserve) public reserves;\n\taddress ETH_ADDRESS = address(0xEeeeeEeeeEeEeeEeEeEeeEEEeeeeEeeeeeeeEEeE);\n\n\tconstructor() {\n\t\towner = msg.sender;\n\t}\n\n\tmodifier onlyOwner() {\n        require(msg.sender == owner, \"Only owner can call this function\");\n        _;\n    }\n\n\tfunction addReserve(address reserve, address token) onlyOwner public{\n\t\treserves[token] = Reserve(reserve);\n\t}\n\n\tfunction exchange(address srcToken, address destToken, uint256 amount) public payable {\n\t\trequire(srcToken != destToken, \"srcToken and destToken must be different\");\n\t\trequire(amount > 0, \"Amount must be greater than 0\");\n\n\t\tReserve srcReserve = reserves[srcToken];\n\t\tReserve destReserve = reserves[destToken];\n\n\t\tif (srcToken == ETH_ADDRESS) {\n\t\t\t// Swap ETH for destToken\n\t\t\trequire(msg.value == amount, \"Amount must be equal to msg.value\");\n\t\t\trequire(srcToken != address(0), \"srcToken does not exist\");\n\n\t\t\tERC20 destTokenContract = ERC20(destToken);\n\n\t\t\t// Send ETH to srcReserve and get destToken to Exchange\n\t\t\tuint256 sendBackAmount = destReserve.buyToken{value: amount}();\n\n\t\t\t// send token from the Exchange to the user\n\t\t\tdestTokenContract.transfer(msg.sender, sendBackAmount);\n\t\t} else if (destToken == ETH_ADDRESS) {\n\t\t\t// Swap srcToken for ETH\n\t\t\trequire(destToken != address(0), \"srcReserve does not exist\");\n\n\t\t\tERC20 srcTokenContract = ERC20(srcToken);\n\n\t\t\t// recive token from sender\n\t\t\tsrcTokenContract.transferFrom(msg.sender, address(this), amount);\n\n\t\t\t// approve srcReserve to spend token\n\t\t\tsrcTokenContract.approve(address(srcReserve), amount);\n\n\t\t\t// Send token to srcReserve and get ETH to Exchange\n\t\t\tuint256 sendBackAmount = srcReserve.sellToken(amount);\n\n\t\t\t// send ETH from the Exchange to the user\n\t\t\tpayable(msg.sender).transfer(sendBackAmount);\n\t\t} else {\n\t\t\t// Swap srcToken for destToken\n\t\t\trequire(srcToken != address(0), \"srcReserve does not exist\");\n\t\t\trequire(destToken != address(0), \"destReserve does not exist\");\n\n\t\t\tERC20 srcTokenContract = ERC20(srcToken);\n\t\t\tERC20 destTokenContract = ERC20(destToken);\n\n\t\t\t// recive token from sender\n\t\t\tsrcTokenContract.transferFrom(msg.sender, address(this), amount);\n\n\t\t\t// approve srcReserve to spend token\n\t\t\tsrcTokenContract.approve(address(srcReserve), amount);\n\n\t\t\t// Send token to srcReserve and get destToken to Exchange\n\t\t\tuint256 ethRecived = srcReserve.sellToken(amount);\n\n\t\t\t// buy destToken with ETH\n\t\t\tuint256 sendBackAmount = destReserve.buyToken{value: ethRecived}();\n\n\t\t\t// send token from the Exchange to the user\n\t\t\tdestTokenContract.transfer(msg.sender, sendBackAmount);\n\t\t}\n\t}\n\n\tfunction getReserve(address token) public view returns (address) {\n\t\treturn address(reserves[token]);\n\t}\n\n\tfunction getExchangeRate(address srcToken, address destToken) public view returns (uint256) {\n\t\tif (srcToken == ETH_ADDRESS) {\n\t\t\treturn reserves[destToken].getBuyRate();\n\t\t} else if (destToken == ETH_ADDRESS) {\n\t\t\treturn reserves[srcToken].getSellRate();\n\t\t} else {\n\t\t\treturn reserves[srcToken].getSellRate() / reserves[destToken].getBuyRate();\n\t\t}\n\t}\n\t\n    receive() external payable {}\n}\n",
  "sourcePath": "/home/dan3002/Coding/FUNiX-Swap/contracts/Exchange.sol",
  "compiler": {
    "name": "solc",
    "version": "0.8.0+commit.c7dfd78e.Emscripten.clang"
  },
  "schemaVersion": "3.4.13",
  "updatedAt": "2023-04-23T16:54:25.303Z",
  "networkType": "ethereum",
  "devdoc": {
    "kind": "dev",
    "methods": {},
    "version": 1
  },
  "userdoc": {
    "kind": "user",
    "methods": {},
    "version": 1
  }
}