{
  "contractName": "Exchange",
  "abi": [
    {
      "inputs": [],
      "stateMutability": "nonpayable",
      "type": "constructor"
    },
    {
      "inputs": [],
      "name": "owner",
      "outputs": [
        {
          "internalType": "address",
          "name": "",
          "type": "address"
        }
      ],
      "stateMutability": "view",
      "type": "function",
      "constant": true
    },
    {
      "inputs": [
        {
          "internalType": "address",
          "name": "",
          "type": "address"
        }
      ],
      "name": "reserves",
      "outputs": [
        {
          "internalType": "contract Reserve",
          "name": "",
          "type": "address"
        }
      ],
      "stateMutability": "view",
      "type": "function",
      "constant": true
    },
    {
      "stateMutability": "payable",
      "type": "receive",
      "payable": true
    },
    {
      "inputs": [
        {
          "internalType": "address payable",
          "name": "reserve",
          "type": "address"
        },
        {
          "internalType": "address",
          "name": "token",
          "type": "address"
        }
      ],
      "name": "addReserve",
      "outputs": [],
      "stateMutability": "nonpayable",
      "type": "function"
    },
    {
      "inputs": [
        {
          "internalType": "address",
          "name": "token",
          "type": "address"
        }
      ],
      "name": "deleteReserve",
      "outputs": [],
      "stateMutability": "nonpayable",
      "type": "function"
    },
    {
      "inputs": [
        {
          "internalType": "address",
          "name": "srcToken",
          "type": "address"
        },
        {
          "internalType": "address",
          "name": "destToken",
          "type": "address"
        },
        {
          "internalType": "uint256",
          "name": "amount",
          "type": "uint256"
        }
      ],
      "name": "exchange",
      "outputs": [],
      "stateMutability": "payable",
      "type": "function",
      "payable": true
    },
    {
      "inputs": [
        {
          "internalType": "address",
          "name": "srcToken",
          "type": "address"
        },
        {
          "internalType": "address",
          "name": "destToken",
          "type": "address"
        }
      ],
      "name": "getExchangeRate",
      "outputs": [
        {
          "internalType": "uint256",
          "name": "",
          "type": "uint256"
        }
      ],
      "stateMutability": "view",
      "type": "function",
      "constant": true
    }
  ],
  "bytecode": "0x608060405273eeeeeeeeeeeeeeeeeeeeeeeeeeeeeeeeeeeeeeee600260006101000a81548173ffffffffffffffffffffffffffffffffffffffff021916908373ffffffffffffffffffffffffffffffffffffffff16021790555034801561006557600080fd5b50336000806101000a81548173ffffffffffffffffffffffffffffffffffffffff021916908373ffffffffffffffffffffffffffffffffffffffff160217905550611a55806100b56000396000f3fe6080604052600436106100595760003560e01c80631973262114610065578063638141921461008e5780638da5cb5b146100b7578063969e3756146100e2578063baaa61be146100fe578063d66bd5241461013b57610060565b3661006057005b600080fd5b34801561007157600080fd5b5061008c60048036038101906100879190611342565b610178565b005b34801561009a57600080fd5b506100b560048036038101906100b09190611319565b610288565b005b3480156100c357600080fd5b506100cc61037b565b6040516100d991906116ba565b60405180910390f35b6100fc60048036038101906100f791906113ba565b61039f565b005b34801561010a57600080fd5b506101256004803603810190610120919061137e565b610dbd565b6040516101329190611830565b60405180910390f35b34801561014757600080fd5b50610162600480360381019061015d9190611319565b61127d565b60405161016f9190611735565b60405180910390f35b60008054906101000a900473ffffffffffffffffffffffffffffffffffffffff1673ffffffffffffffffffffffffffffffffffffffff163373ffffffffffffffffffffffffffffffffffffffff1614610206576040517f08c379a00000000000000000000000000000000000000000000000000000000081526004016101fd90611750565b60405180910390fd5b81600160008373ffffffffffffffffffffffffffffffffffffffff1673ffffffffffffffffffffffffffffffffffffffff16815260200190815260200160002060006101000a81548173ffffffffffffffffffffffffffffffffffffffff021916908373ffffffffffffffffffffffffffffffffffffffff1602179055505050565b60008054906101000a900473ffffffffffffffffffffffffffffffffffffffff1673ffffffffffffffffffffffffffffffffffffffff163373ffffffffffffffffffffffffffffffffffffffff1614610316576040517f08c379a000000000000000000000000000000000000000000000000000000000815260040161030d90611750565b60405180910390fd5b600160008273ffffffffffffffffffffffffffffffffffffffff1673ffffffffffffffffffffffffffffffffffffffff16815260200190815260200160002060006101000a81549073ffffffffffffffffffffffffffffffffffffffff021916905550565b60008054906101000a900473ffffffffffffffffffffffffffffffffffffffff1681565b8173ffffffffffffffffffffffffffffffffffffffff168373ffffffffffffffffffffffffffffffffffffffff16141561040e576040517f08c379a000000000000000000000000000000000000000000000000000000000815260040161040590611810565b60405180910390fd5b60008111610451576040517f08c379a000000000000000000000000000000000000000000000000000000000815260040161044890611770565b60405180910390fd5b6000600160008573ffffffffffffffffffffffffffffffffffffffff1673ffffffffffffffffffffffffffffffffffffffff16815260200190815260200160002060009054906101000a900473ffffffffffffffffffffffffffffffffffffffff1690506000600160008573ffffffffffffffffffffffffffffffffffffffff1673ffffffffffffffffffffffffffffffffffffffff16815260200190815260200160002060009054906101000a900473ffffffffffffffffffffffffffffffffffffffff169050600260009054906101000a900473ffffffffffffffffffffffffffffffffffffffff1673ffffffffffffffffffffffffffffffffffffffff168573ffffffffffffffffffffffffffffffffffffffff161415610740578234146105b1576040517f08c379a00000000000000000000000000000000000000000000000000000000081526004016105a8906117b0565b60405180910390fd5b600073ffffffffffffffffffffffffffffffffffffffff168573ffffffffffffffffffffffffffffffffffffffff161415610621576040517f08c379a0000000000000000000000000000000000000000000000000000000008152600401610618906117d0565b60405180910390fd5b600084905060008273ffffffffffffffffffffffffffffffffffffffff1663a4821719866040518263ffffffff1660e01b81526004016020604051808303818588803b15801561067057600080fd5b505af1158015610684573d6000803e3d6000fd5b50505050506040513d601f19601f820116820180604052508101906106a99190611432565b90508173ffffffffffffffffffffffffffffffffffffffff1663a9059cbb33836040518363ffffffff1660e01b81526004016106e692919061170c565b602060405180830381600087803b15801561070057600080fd5b505af1158015610714573d6000803e3d6000fd5b505050506040513d601f19601f820116820180604052508101906107389190611409565b505050610db6565b600260009054906101000a900473ffffffffffffffffffffffffffffffffffffffff1673ffffffffffffffffffffffffffffffffffffffff168473ffffffffffffffffffffffffffffffffffffffff161415610a0657600073ffffffffffffffffffffffffffffffffffffffff168473ffffffffffffffffffffffffffffffffffffffff161415610806576040517f08c379a00000000000000000000000000000000000000000000000000000000081526004016107fd906117f0565b60405180910390fd5b60008590508073ffffffffffffffffffffffffffffffffffffffff166323b872dd3330876040518463ffffffff1660e01b8152600401610848939291906116d5565b602060405180830381600087803b15801561086257600080fd5b505af1158015610876573d6000803e3d6000fd5b505050506040513d601f19601f8201168201806040525081019061089a9190611409565b508073ffffffffffffffffffffffffffffffffffffffff1663095ea7b384866040518363ffffffff1660e01b81526004016108d692919061170c565b602060405180830381600087803b1580156108f057600080fd5b505af1158015610904573d6000803e3d6000fd5b505050506040513d601f19601f820116820180604052508101906109289190611409565b5060008373ffffffffffffffffffffffffffffffffffffffff16632397e4d7866040518263ffffffff1660e01b81526004016109649190611830565b602060405180830381600087803b15801561097e57600080fd5b505af1158015610992573d6000803e3d6000fd5b505050506040513d601f19601f820116820180604052508101906109b69190611432565b90503373ffffffffffffffffffffffffffffffffffffffff166108fc829081150290604051600060405180830381858888f193505050501580156109fe573d6000803e3d6000fd5b505050610db5565b600073ffffffffffffffffffffffffffffffffffffffff168573ffffffffffffffffffffffffffffffffffffffff161415610a76576040517f08c379a0000000000000000000000000000000000000000000000000000000008152600401610a6d906117f0565b60405180910390fd5b600073ffffffffffffffffffffffffffffffffffffffff168473ffffffffffffffffffffffffffffffffffffffff161415610ae6576040517f08c379a0000000000000000000000000000000000000000000000000000000008152600401610add90611790565b60405180910390fd5b600085905060008590508173ffffffffffffffffffffffffffffffffffffffff166323b872dd3330886040518463ffffffff1660e01b8152600401610b2d939291906116d5565b602060405180830381600087803b158015610b4757600080fd5b505af1158015610b5b573d6000803e3d6000fd5b505050506040513d601f19601f82011682018060405250810190610b7f9190611409565b508173ffffffffffffffffffffffffffffffffffffffff1663095ea7b385876040518363ffffffff1660e01b8152600401610bbb92919061170c565b602060405180830381600087803b158015610bd557600080fd5b505af1158015610be9573d6000803e3d6000fd5b505050506040513d601f19601f82011682018060405250810190610c0d9190611409565b5060008473ffffffffffffffffffffffffffffffffffffffff16632397e4d7876040518263ffffffff1660e01b8152600401610c499190611830565b602060405180830381600087803b158015610c6357600080fd5b505af1158015610c77573d6000803e3d6000fd5b505050506040513d601f19601f82011682018060405250810190610c9b9190611432565b905060008473ffffffffffffffffffffffffffffffffffffffff1663a4821719836040518263ffffffff1660e01b81526004016020604051808303818588803b158015610ce757600080fd5b505af1158015610cfb573d6000803e3d6000fd5b50505050506040513d601f19601f82011682018060405250810190610d209190611432565b90508273ffffffffffffffffffffffffffffffffffffffff1663a9059cbb33836040518363ffffffff1660e01b8152600401610d5d92919061170c565b602060405180830381600087803b158015610d7757600080fd5b505af1158015610d8b573d6000803e3d6000fd5b505050506040513d601f19601f82011682018060405250810190610daf9190611409565b50505050505b5b5050505050565b6000600260009054906101000a900473ffffffffffffffffffffffffffffffffffffffff1673ffffffffffffffffffffffffffffffffffffffff168373ffffffffffffffffffffffffffffffffffffffff161415610f0c57600160008373ffffffffffffffffffffffffffffffffffffffff1673ffffffffffffffffffffffffffffffffffffffff16815260200190815260200160002060009054906101000a900473ffffffffffffffffffffffffffffffffffffffff1673ffffffffffffffffffffffffffffffffffffffff16633d35d7ba6040518163ffffffff1660e01b815260040160206040518083038186803b158015610eba57600080fd5b505afa158015610ece573d6000803e3d6000fd5b505050506040513d601f19601f82011682018060405250810190610ef29190611432565b670de0b6b3a7640000610f05919061188d565b9050611277565b600260009054906101000a900473ffffffffffffffffffffffffffffffffffffffff1673ffffffffffffffffffffffffffffffffffffffff168273ffffffffffffffffffffffffffffffffffffffff16141561105957600160008473ffffffffffffffffffffffffffffffffffffffff1673ffffffffffffffffffffffffffffffffffffffff16815260200190815260200160002060009054906101000a900473ffffffffffffffffffffffffffffffffffffffff1673ffffffffffffffffffffffffffffffffffffffff1663226fd9eb6040518163ffffffff1660e01b815260040160206040518083038186803b15801561100757600080fd5b505afa15801561101b573d6000803e3d6000fd5b505050506040513d601f19601f8201168201806040525081019061103f9190611432565b670de0b6b3a7640000611052919061185c565b9050611277565b8173ffffffffffffffffffffffffffffffffffffffff168373ffffffffffffffffffffffffffffffffffffffff16141561109d57670de0b6b3a76400009050611277565b600160008473ffffffffffffffffffffffffffffffffffffffff1673ffffffffffffffffffffffffffffffffffffffff16815260200190815260200160002060009054906101000a900473ffffffffffffffffffffffffffffffffffffffff1673ffffffffffffffffffffffffffffffffffffffff1663226fd9eb6040518163ffffffff1660e01b815260040160206040518083038186803b15801561114257600080fd5b505afa158015611156573d6000803e3d6000fd5b505050506040513d601f19601f8201168201806040525081019061117a9190611432565b600160008473ffffffffffffffffffffffffffffffffffffffff1673ffffffffffffffffffffffffffffffffffffffff16815260200190815260200160002060009054906101000a900473ffffffffffffffffffffffffffffffffffffffff1673ffffffffffffffffffffffffffffffffffffffff16633d35d7ba6040518163ffffffff1660e01b815260040160206040518083038186803b15801561121f57600080fd5b505afa158015611233573d6000803e3d6000fd5b505050506040513d601f19601f820116820180604052508101906112579190611432565b670de0b6b3a764000061126a919061188d565b611274919061185c565b90505b92915050565b60016020528060005260406000206000915054906101000a900473ffffffffffffffffffffffffffffffffffffffff1681565b6000813590506112bf816119c3565b92915050565b6000813590506112d4816119da565b92915050565b6000815190506112e9816119f1565b92915050565b6000813590506112fe81611a08565b92915050565b60008151905061131381611a08565b92915050565b60006020828403121561132b57600080fd5b6000611339848285016112b0565b91505092915050565b6000806040838503121561135557600080fd5b6000611363858286016112c5565b9250506020611374858286016112b0565b9150509250929050565b6000806040838503121561139157600080fd5b600061139f858286016112b0565b92505060206113b0858286016112b0565b9150509250929050565b6000806000606084860312156113cf57600080fd5b60006113dd868287016112b0565b93505060206113ee868287016112b0565b92505060406113ff868287016112ef565b9150509250925092565b60006020828403121561141b57600080fd5b6000611429848285016112da565b91505092915050565b60006020828403121561144457600080fd5b600061145284828501611304565b91505092915050565b611464816118e7565b82525050565b61147381611941565b82525050565b600061148660218361184b565b91507f4f6e6c79206f776e65722063616e2063616c6c20746869732066756e6374696f60008301527f6e000000000000000000000000000000000000000000000000000000000000006020830152604082019050919050565b60006114ec601d8361184b565b91507f416d6f756e74206d7573742062652067726561746572207468616e20300000006000830152602082019050919050565b600061152c601a8361184b565b91507f646573745265736572766520646f6573206e6f742065786973740000000000006000830152602082019050919050565b600061156c60218361184b565b91507f416d6f756e74206d75737420626520657175616c20746f206d73672e76616c7560008301527f65000000000000000000000000000000000000000000000000000000000000006020830152604082019050919050565b60006115d260178361184b565b91507f737263546f6b656e20646f6573206e6f742065786973740000000000000000006000830152602082019050919050565b600061161260198361184b565b91507f7372635265736572766520646f6573206e6f74206578697374000000000000006000830152602082019050919050565b600061165260288361184b565b91507f737263546f6b656e20616e642064657374546f6b656e206d757374206265206460008301527f6966666572656e740000000000000000000000000000000000000000000000006020830152604082019050919050565b6116b481611937565b82525050565b60006020820190506116cf600083018461145b565b92915050565b60006060820190506116ea600083018661145b565b6116f7602083018561145b565b61170460408301846116ab565b949350505050565b6000604082019050611721600083018561145b565b61172e60208301846116ab565b9392505050565b600060208201905061174a600083018461146a565b92915050565b6000602082019050818103600083015261176981611479565b9050919050565b60006020820190508181036000830152611789816114df565b9050919050565b600060208201905081810360008301526117a98161151f565b9050919050565b600060208201905081810360008301526117c98161155f565b9050919050565b600060208201905081810360008301526117e9816115c5565b9050919050565b6000602082019050818103600083015261180981611605565b9050919050565b6000602082019050818103600083015261182981611645565b9050919050565b600060208201905061184560008301846116ab565b92915050565b600082825260208201905092915050565b600061186782611937565b915061187283611937565b92508261188257611881611994565b5b828204905092915050565b600061189882611937565b91506118a383611937565b9250817fffffffffffffffffffffffffffffffffffffffffffffffffffffffffffffffff04831182151516156118dc576118db611965565b5b828202905092915050565b60006118f282611917565b9050919050565b600061190482611917565b9050919050565b60008115159050919050565b600073ffffffffffffffffffffffffffffffffffffffff82169050919050565b6000819050919050565b600061194c82611953565b9050919050565b600061195e82611917565b9050919050565b7f4e487b7100000000000000000000000000000000000000000000000000000000600052601160045260246000fd5b7f4e487b7100000000000000000000000000000000000000000000000000000000600052601260045260246000fd5b6119cc816118e7565b81146119d757600080fd5b50565b6119e3816118f9565b81146119ee57600080fd5b50565b6119fa8161190b565b8114611a0557600080fd5b50565b611a1181611937565b8114611a1c57600080fd5b5056fea264697066735822122086b3dc6d5fe13cd1e948dcf9990aa2b8ad86a3c87245089569b3a2e2b20fd53364736f6c63430008000033",
  "immutableReferences": {},
  "source": "pragma solidity ^0.8.0;\n\nimport \"@openzeppelin/contracts/token/ERC20/ERC20.sol\";\nimport \"./Reserve.sol\";\n\ncontract Exchange {\n\taddress public owner;\n\tmapping (address => Reserve) public reserves;\n\taddress ETH_ADDRESS = address(0xEeeeeEeeeEeEeeEeEeEeeEEEeeeeEeeeeeeeEEeE);\n\n\tconstructor() {\n\t\towner = msg.sender;\n\t}\n\n\tmodifier onlyOwner() {\n        require(msg.sender == owner, \"Only owner can call this function\");\n        _;\n    }\n\n\tfunction addReserve(address payable reserve, address token) onlyOwner public{\n\t\treserves[token] = Reserve(reserve);\n\t}\n\n\tfunction deleteReserve(address token) onlyOwner public{\n\t\tdelete reserves[token];\n\t}\n\n\tfunction exchange(address srcToken, address destToken, uint256 amount) public payable {\n\t\trequire(srcToken != destToken, \"srcToken and destToken must be different\");\n\t\trequire(amount > 0, \"Amount must be greater than 0\");\n\n\t\tReserve srcReserve = reserves[srcToken];\n\t\tReserve destReserve = reserves[destToken];\n\n\t\tif (srcToken == ETH_ADDRESS) {\n\t\t\t// Swap ETH for destToken\n\t\t\trequire(msg.value == amount, \"Amount must be equal to msg.value\");\n\t\t\trequire(srcToken != address(0), \"srcToken does not exist\");\n\n\t\t\tERC20 destTokenContract = ERC20(destToken);\n\n\t\t\t// Send ETH to srcReserve and get destToken to Exchange\n\t\t\tuint256 sendBackAmount = destReserve.buyToken{value: amount}();\n\n\t\t\t// send token from the Exchange to the user\n\t\t\tdestTokenContract.transfer(msg.sender, sendBackAmount);\n\t\t} else if (destToken == ETH_ADDRESS) {\n\t\t\t// Swap srcToken for ETH\n\t\t\trequire(destToken != address(0), \"srcReserve does not exist\");\n\n\t\t\tERC20 srcTokenContract = ERC20(srcToken);\n\n\t\t\t// recive token from sender\n\t\t\tsrcTokenContract.transferFrom(msg.sender, address(this), amount);\n\n\t\t\t// approve srcReserve to spend token\n\t\t\tsrcTokenContract.approve(address(srcReserve), amount);\n\n\t\t\t// Send token to srcReserve and get ETH to Exchange\n\t\t\tuint256 sendBackAmount = srcReserve.sellToken(amount);\n\n\t\t\t// send ETH from the Exchange to the user\n\t\t\tpayable(msg.sender).transfer(sendBackAmount);\n\t\t} else {\n\t\t\t// Swap srcToken for destToken\n\t\t\trequire(srcToken != address(0), \"srcReserve does not exist\");\n\t\t\trequire(destToken != address(0), \"destReserve does not exist\");\n\n\t\t\tERC20 srcTokenContract = ERC20(srcToken);\n\t\t\tERC20 destTokenContract = ERC20(destToken);\n\n\t\t\t// recive token from sender\n\t\t\tsrcTokenContract.transferFrom(msg.sender, address(this), amount);\n\n\t\t\t// approve srcReserve to spend token\n\t\t\tsrcTokenContract.approve(address(srcReserve), amount);\n\n\t\t\t// Send token to srcReserve and get destToken to Exchange\n\t\t\tuint256 ethRecived = srcReserve.sellToken(amount);\n\n\t\t\t// buy destToken with ETH\n\t\t\tuint256 sendBackAmount = destReserve.buyToken{value: ethRecived}();\n\n\t\t\t// send token from the Exchange to the user\n\t\t\tdestTokenContract.transfer(msg.sender, sendBackAmount);\n\t\t}\n\t}\n\n\tfunction getExchangeRate(address srcToken, address destToken) public view returns (uint256) {\n\t\tif (srcToken == ETH_ADDRESS) {\n\t\t\treturn 1e18 * reserves[destToken].getBuyRate();\n\t\t} else if (destToken == ETH_ADDRESS) {\n\t\t\treturn 1e18 / reserves[srcToken].getSellRate();\n\t\t} else if (srcToken == destToken) {\n\t\t\treturn 1e18;\n\t\t} else {\n\t\t\treturn (1e18 * reserves[destToken].getBuyRate()) /  reserves[srcToken].getSellRate();\n\t\t}\n\t}\n\t\n    receive() external payable {}\n}\n",
  "sourcePath": "/home/dan3002/Coding/FUNiX-Swap/contracts/Exchange.sol",
  "compiler": {
    "name": "solc",
    "version": "0.8.0+commit.c7dfd78e.Emscripten.clang"
  },
  "schemaVersion": "3.4.13",
  "updatedAt": "2023-04-25T01:28:17.686Z",
  "networkType": "ethereum",
  "devdoc": {
    "kind": "dev",
    "methods": {},
    "version": 1
  },
  "userdoc": {
    "kind": "user",
    "methods": {},
    "version": 1
  }
}