{
  "contractName": "Exchange",
  "abi": [
    {
      "inputs": [],
      "stateMutability": "nonpayable",
      "type": "constructor"
    },
    {
      "inputs": [],
      "name": "owner",
      "outputs": [
        {
          "internalType": "address",
          "name": "",
          "type": "address"
        }
      ],
      "stateMutability": "view",
      "type": "function",
      "constant": true
    },
    {
      "inputs": [
        {
          "internalType": "address",
          "name": "",
          "type": "address"
        }
      ],
      "name": "reserves",
      "outputs": [
        {
          "internalType": "contract Reserve",
          "name": "",
          "type": "address"
        }
      ],
      "stateMutability": "view",
      "type": "function",
      "constant": true
    },
    {
      "stateMutability": "payable",
      "type": "receive",
      "payable": true
    },
    {
      "inputs": [
        {
          "internalType": "address",
          "name": "reserve",
          "type": "address"
        },
        {
          "internalType": "address",
          "name": "token",
          "type": "address"
        }
      ],
      "name": "addReserve",
      "outputs": [],
      "stateMutability": "nonpayable",
      "type": "function"
    },
    {
      "inputs": [
        {
          "internalType": "address",
          "name": "srcToken",
          "type": "address"
        },
        {
          "internalType": "address",
          "name": "destToken",
          "type": "address"
        },
        {
          "internalType": "uint256",
          "name": "amount",
          "type": "uint256"
        }
      ],
      "name": "exchange",
      "outputs": [],
      "stateMutability": "payable",
      "type": "function",
      "payable": true
    },
    {
      "inputs": [
        {
          "internalType": "address",
          "name": "token",
          "type": "address"
        }
      ],
      "name": "getReserve",
      "outputs": [
        {
          "internalType": "address",
          "name": "",
          "type": "address"
        }
      ],
      "stateMutability": "view",
      "type": "function",
      "constant": true
    },
    {
      "inputs": [
        {
          "internalType": "address",
          "name": "srcToken",
          "type": "address"
        },
        {
          "internalType": "address",
          "name": "destToken",
          "type": "address"
        }
      ],
      "name": "getExchangeRate",
      "outputs": [
        {
          "internalType": "uint256",
          "name": "",
          "type": "uint256"
        }
      ],
      "stateMutability": "view",
      "type": "function",
      "constant": true
    }
  ],
  "bytecode": "0x608060405273eeeeeeeeeeeeeeeeeeeeeeeeeeeeeeeeeeeeeeee600260006101000a81548173ffffffffffffffffffffffffffffffffffffffff021916908373ffffffffffffffffffffffffffffffffffffffff16021790555034801561006557600080fd5b50336000806101000a81548173ffffffffffffffffffffffffffffffffffffffff021916908373ffffffffffffffffffffffffffffffffffffffff160217905550611921806100b56000396000f3fe6080604052600436106100595760003560e01c806319732621146100655780638da5cb5b1461008e578063969e3756146100b9578063baaa61be146100d5578063c9a396e914610112578063d66bd5241461014f57610060565b3661006057005b600080fd5b34801561007157600080fd5b5061008c60048036038101906100879190611273565b61018c565b005b34801561009a57600080fd5b506100a361029c565b6040516100b091906115af565b60405180910390f35b6100d360048036038101906100ce91906112af565b6102c0565b005b3480156100e157600080fd5b506100fc60048036038101906100f79190611273565b610cde565b6040516101099190611725565b60405180910390f35b34801561011e57600080fd5b506101396004803603810190610134919061124a565b61115a565b60405161014691906115af565b60405180910390f35b34801561015b57600080fd5b506101766004803603810190610171919061124a565b6111c3565b604051610183919061162a565b60405180910390f35b60008054906101000a900473ffffffffffffffffffffffffffffffffffffffff1673ffffffffffffffffffffffffffffffffffffffff163373ffffffffffffffffffffffffffffffffffffffff161461021a576040517f08c379a000000000000000000000000000000000000000000000000000000000815260040161021190611645565b60405180910390fd5b81600160008373ffffffffffffffffffffffffffffffffffffffff1673ffffffffffffffffffffffffffffffffffffffff16815260200190815260200160002060006101000a81548173ffffffffffffffffffffffffffffffffffffffff021916908373ffffffffffffffffffffffffffffffffffffffff1602179055505050565b60008054906101000a900473ffffffffffffffffffffffffffffffffffffffff1681565b8173ffffffffffffffffffffffffffffffffffffffff168373ffffffffffffffffffffffffffffffffffffffff16141561032f576040517f08c379a000000000000000000000000000000000000000000000000000000000815260040161032690611705565b60405180910390fd5b60008111610372576040517f08c379a000000000000000000000000000000000000000000000000000000000815260040161036990611665565b60405180910390fd5b6000600160008573ffffffffffffffffffffffffffffffffffffffff1673ffffffffffffffffffffffffffffffffffffffff16815260200190815260200160002060009054906101000a900473ffffffffffffffffffffffffffffffffffffffff1690506000600160008573ffffffffffffffffffffffffffffffffffffffff1673ffffffffffffffffffffffffffffffffffffffff16815260200190815260200160002060009054906101000a900473ffffffffffffffffffffffffffffffffffffffff169050600260009054906101000a900473ffffffffffffffffffffffffffffffffffffffff1673ffffffffffffffffffffffffffffffffffffffff168573ffffffffffffffffffffffffffffffffffffffff161415610661578234146104d2576040517f08c379a00000000000000000000000000000000000000000000000000000000081526004016104c9906116a5565b60405180910390fd5b600073ffffffffffffffffffffffffffffffffffffffff168573ffffffffffffffffffffffffffffffffffffffff161415610542576040517f08c379a0000000000000000000000000000000000000000000000000000000008152600401610539906116c5565b60405180910390fd5b600084905060008273ffffffffffffffffffffffffffffffffffffffff1663a4821719866040518263ffffffff1660e01b81526004016020604051808303818588803b15801561059157600080fd5b505af11580156105a5573d6000803e3d6000fd5b50505050506040513d601f19601f820116820180604052508101906105ca9190611327565b90508173ffffffffffffffffffffffffffffffffffffffff1663a9059cbb33836040518363ffffffff1660e01b8152600401610607929190611601565b602060405180830381600087803b15801561062157600080fd5b505af1158015610635573d6000803e3d6000fd5b505050506040513d601f19601f8201168201806040525081019061065991906112fe565b505050610cd7565b600260009054906101000a900473ffffffffffffffffffffffffffffffffffffffff1673ffffffffffffffffffffffffffffffffffffffff168473ffffffffffffffffffffffffffffffffffffffff16141561092757600073ffffffffffffffffffffffffffffffffffffffff168473ffffffffffffffffffffffffffffffffffffffff161415610727576040517f08c379a000000000000000000000000000000000000000000000000000000000815260040161071e906116e5565b60405180910390fd5b60008590508073ffffffffffffffffffffffffffffffffffffffff166323b872dd3330876040518463ffffffff1660e01b8152600401610769939291906115ca565b602060405180830381600087803b15801561078357600080fd5b505af1158015610797573d6000803e3d6000fd5b505050506040513d601f19601f820116820180604052508101906107bb91906112fe565b508073ffffffffffffffffffffffffffffffffffffffff1663095ea7b384866040518363ffffffff1660e01b81526004016107f7929190611601565b602060405180830381600087803b15801561081157600080fd5b505af1158015610825573d6000803e3d6000fd5b505050506040513d601f19601f8201168201806040525081019061084991906112fe565b5060008373ffffffffffffffffffffffffffffffffffffffff16632397e4d7866040518263ffffffff1660e01b81526004016108859190611725565b602060405180830381600087803b15801561089f57600080fd5b505af11580156108b3573d6000803e3d6000fd5b505050506040513d601f19601f820116820180604052508101906108d79190611327565b90503373ffffffffffffffffffffffffffffffffffffffff166108fc829081150290604051600060405180830381858888f1935050505015801561091f573d6000803e3d6000fd5b505050610cd6565b600073ffffffffffffffffffffffffffffffffffffffff168573ffffffffffffffffffffffffffffffffffffffff161415610997576040517f08c379a000000000000000000000000000000000000000000000000000000000815260040161098e906116e5565b60405180910390fd5b600073ffffffffffffffffffffffffffffffffffffffff168473ffffffffffffffffffffffffffffffffffffffff161415610a07576040517f08c379a00000000000000000000000000000000000000000000000000000000081526004016109fe90611685565b60405180910390fd5b600085905060008590508173ffffffffffffffffffffffffffffffffffffffff166323b872dd3330886040518463ffffffff1660e01b8152600401610a4e939291906115ca565b602060405180830381600087803b158015610a6857600080fd5b505af1158015610a7c573d6000803e3d6000fd5b505050506040513d601f19601f82011682018060405250810190610aa091906112fe565b508173ffffffffffffffffffffffffffffffffffffffff1663095ea7b385876040518363ffffffff1660e01b8152600401610adc929190611601565b602060405180830381600087803b158015610af657600080fd5b505af1158015610b0a573d6000803e3d6000fd5b505050506040513d601f19601f82011682018060405250810190610b2e91906112fe565b5060008473ffffffffffffffffffffffffffffffffffffffff16632397e4d7876040518263ffffffff1660e01b8152600401610b6a9190611725565b602060405180830381600087803b158015610b8457600080fd5b505af1158015610b98573d6000803e3d6000fd5b505050506040513d601f19601f82011682018060405250810190610bbc9190611327565b905060008473ffffffffffffffffffffffffffffffffffffffff1663a4821719836040518263ffffffff1660e01b81526004016020604051808303818588803b158015610c0857600080fd5b505af1158015610c1c573d6000803e3d6000fd5b50505050506040513d601f19601f82011682018060405250810190610c419190611327565b90508273ffffffffffffffffffffffffffffffffffffffff1663a9059cbb33836040518363ffffffff1660e01b8152600401610c7e929190611601565b602060405180830381600087803b158015610c9857600080fd5b505af1158015610cac573d6000803e3d6000fd5b505050506040513d601f19601f82011682018060405250810190610cd091906112fe565b50505050505b5b5050505050565b6000600260009054906101000a900473ffffffffffffffffffffffffffffffffffffffff1673ffffffffffffffffffffffffffffffffffffffff168373ffffffffffffffffffffffffffffffffffffffff161415610e2d57600160008373ffffffffffffffffffffffffffffffffffffffff1673ffffffffffffffffffffffffffffffffffffffff16815260200190815260200160002060009054906101000a900473ffffffffffffffffffffffffffffffffffffffff1673ffffffffffffffffffffffffffffffffffffffff16633d35d7ba6040518163ffffffff1660e01b815260040160206040518083038186803b158015610ddb57600080fd5b505afa158015610def573d6000803e3d6000fd5b505050506040513d601f19601f82011682018060405250810190610e139190611327565b670de0b6b3a7640000610e269190611782565b9050611154565b600260009054906101000a900473ffffffffffffffffffffffffffffffffffffffff1673ffffffffffffffffffffffffffffffffffffffff168273ffffffffffffffffffffffffffffffffffffffff161415610f7a57600160008473ffffffffffffffffffffffffffffffffffffffff1673ffffffffffffffffffffffffffffffffffffffff16815260200190815260200160002060009054906101000a900473ffffffffffffffffffffffffffffffffffffffff1673ffffffffffffffffffffffffffffffffffffffff1663226fd9eb6040518163ffffffff1660e01b815260040160206040518083038186803b158015610f2857600080fd5b505afa158015610f3c573d6000803e3d6000fd5b505050506040513d601f19601f82011682018060405250810190610f609190611327565b670de0b6b3a7640000610f739190611751565b9050611154565b600160008373ffffffffffffffffffffffffffffffffffffffff1673ffffffffffffffffffffffffffffffffffffffff16815260200190815260200160002060009054906101000a900473ffffffffffffffffffffffffffffffffffffffff1673ffffffffffffffffffffffffffffffffffffffff16633d35d7ba6040518163ffffffff1660e01b815260040160206040518083038186803b15801561101f57600080fd5b505afa158015611033573d6000803e3d6000fd5b505050506040513d601f19601f820116820180604052508101906110579190611327565b600160008573ffffffffffffffffffffffffffffffffffffffff1673ffffffffffffffffffffffffffffffffffffffff16815260200190815260200160002060009054906101000a900473ffffffffffffffffffffffffffffffffffffffff1673ffffffffffffffffffffffffffffffffffffffff1663226fd9eb6040518163ffffffff1660e01b815260040160206040518083038186803b1580156110fc57600080fd5b505afa158015611110573d6000803e3d6000fd5b505050506040513d601f19601f820116820180604052508101906111349190611327565b670de0b6b3a76400006111479190611782565b6111519190611751565b90505b92915050565b6000600160008373ffffffffffffffffffffffffffffffffffffffff1673ffffffffffffffffffffffffffffffffffffffff16815260200190815260200160002060009054906101000a900473ffffffffffffffffffffffffffffffffffffffff169050919050565b60016020528060005260406000206000915054906101000a900473ffffffffffffffffffffffffffffffffffffffff1681565b600081359050611205816118a6565b92915050565b60008151905061121a816118bd565b92915050565b60008135905061122f816118d4565b92915050565b600081519050611244816118d4565b92915050565b60006020828403121561125c57600080fd5b600061126a848285016111f6565b91505092915050565b6000806040838503121561128657600080fd5b6000611294858286016111f6565b92505060206112a5858286016111f6565b9150509250929050565b6000806000606084860312156112c457600080fd5b60006112d2868287016111f6565b93505060206112e3868287016111f6565b92505060406112f486828701611220565b9150509250925092565b60006020828403121561131057600080fd5b600061131e8482850161120b565b91505092915050565b60006020828403121561133957600080fd5b600061134784828501611235565b91505092915050565b611359816117dc565b82525050565b61136881611824565b82525050565b600061137b602183611740565b91507f4f6e6c79206f776e65722063616e2063616c6c20746869732066756e6374696f60008301527f6e000000000000000000000000000000000000000000000000000000000000006020830152604082019050919050565b60006113e1601d83611740565b91507f416d6f756e74206d7573742062652067726561746572207468616e20300000006000830152602082019050919050565b6000611421601a83611740565b91507f646573745265736572766520646f6573206e6f742065786973740000000000006000830152602082019050919050565b6000611461602183611740565b91507f416d6f756e74206d75737420626520657175616c20746f206d73672e76616c7560008301527f65000000000000000000000000000000000000000000000000000000000000006020830152604082019050919050565b60006114c7601783611740565b91507f737263546f6b656e20646f6573206e6f742065786973740000000000000000006000830152602082019050919050565b6000611507601983611740565b91507f7372635265736572766520646f6573206e6f74206578697374000000000000006000830152602082019050919050565b6000611547602883611740565b91507f737263546f6b656e20616e642064657374546f6b656e206d757374206265206460008301527f6966666572656e740000000000000000000000000000000000000000000000006020830152604082019050919050565b6115a98161181a565b82525050565b60006020820190506115c46000830184611350565b92915050565b60006060820190506115df6000830186611350565b6115ec6020830185611350565b6115f960408301846115a0565b949350505050565b60006040820190506116166000830185611350565b61162360208301846115a0565b9392505050565b600060208201905061163f600083018461135f565b92915050565b6000602082019050818103600083015261165e8161136e565b9050919050565b6000602082019050818103600083015261167e816113d4565b9050919050565b6000602082019050818103600083015261169e81611414565b9050919050565b600060208201905081810360008301526116be81611454565b9050919050565b600060208201905081810360008301526116de816114ba565b9050919050565b600060208201905081810360008301526116fe816114fa565b9050919050565b6000602082019050818103600083015261171e8161153a565b9050919050565b600060208201905061173a60008301846115a0565b92915050565b600082825260208201905092915050565b600061175c8261181a565b91506117678361181a565b92508261177757611776611877565b5b828204905092915050565b600061178d8261181a565b91506117988361181a565b9250817fffffffffffffffffffffffffffffffffffffffffffffffffffffffffffffffff04831182151516156117d1576117d0611848565b5b828202905092915050565b60006117e7826117fa565b9050919050565b60008115159050919050565b600073ffffffffffffffffffffffffffffffffffffffff82169050919050565b6000819050919050565b600061182f82611836565b9050919050565b6000611841826117fa565b9050919050565b7f4e487b7100000000000000000000000000000000000000000000000000000000600052601160045260246000fd5b7f4e487b7100000000000000000000000000000000000000000000000000000000600052601260045260246000fd5b6118af816117dc565b81146118ba57600080fd5b50565b6118c6816117ee565b81146118d157600080fd5b50565b6118dd8161181a565b81146118e857600080fd5b5056fea26469706673582212206409a99d7ffb89b97f69c580f7b706ccf9bc413117eb8612a51459ab09715e3f64736f6c63430008000033",
  "immutableReferences": {},
  "source": "pragma solidity ^0.8.0;\n\nimport \"@openzeppelin/contracts/token/ERC20/ERC20.sol\";\nimport \"./Reserve.sol\";\n\ncontract Exchange {\n\taddress public owner;\n\tmapping (address => Reserve) public reserves;\n\taddress ETH_ADDRESS = address(0xEeeeeEeeeEeEeeEeEeEeeEEEeeeeEeeeeeeeEEeE);\n\n\tconstructor() {\n\t\towner = msg.sender;\n\t}\n\n\tmodifier onlyOwner() {\n        require(msg.sender == owner, \"Only owner can call this function\");\n        _;\n    }\n\n\tfunction addReserve(address reserve, address token) onlyOwner public{\n\t\treserves[token] = Reserve(reserve);\n\t}\n\n\tfunction exchange(address srcToken, address destToken, uint256 amount) public payable {\n\t\trequire(srcToken != destToken, \"srcToken and destToken must be different\");\n\t\trequire(amount > 0, \"Amount must be greater than 0\");\n\n\t\tReserve srcReserve = reserves[srcToken];\n\t\tReserve destReserve = reserves[destToken];\n\n\t\tif (srcToken == ETH_ADDRESS) {\n\t\t\t// Swap ETH for destToken\n\t\t\trequire(msg.value == amount, \"Amount must be equal to msg.value\");\n\t\t\trequire(srcToken != address(0), \"srcToken does not exist\");\n\n\t\t\tERC20 destTokenContract = ERC20(destToken);\n\n\t\t\t// Send ETH to srcReserve and get destToken to Exchange\n\t\t\tuint256 sendBackAmount = destReserve.buyToken{value: amount}();\n\n\t\t\t// send token from the Exchange to the user\n\t\t\tdestTokenContract.transfer(msg.sender, sendBackAmount);\n\t\t} else if (destToken == ETH_ADDRESS) {\n\t\t\t// Swap srcToken for ETH\n\t\t\trequire(destToken != address(0), \"srcReserve does not exist\");\n\n\t\t\tERC20 srcTokenContract = ERC20(srcToken);\n\n\t\t\t// recive token from sender\n\t\t\tsrcTokenContract.transferFrom(msg.sender, address(this), amount);\n\n\t\t\t// approve srcReserve to spend token\n\t\t\tsrcTokenContract.approve(address(srcReserve), amount);\n\n\t\t\t// Send token to srcReserve and get ETH to Exchange\n\t\t\tuint256 sendBackAmount = srcReserve.sellToken(amount);\n\n\t\t\t// send ETH from the Exchange to the user\n\t\t\tpayable(msg.sender).transfer(sendBackAmount);\n\t\t} else {\n\t\t\t// Swap srcToken for destToken\n\t\t\trequire(srcToken != address(0), \"srcReserve does not exist\");\n\t\t\trequire(destToken != address(0), \"destReserve does not exist\");\n\n\t\t\tERC20 srcTokenContract = ERC20(srcToken);\n\t\t\tERC20 destTokenContract = ERC20(destToken);\n\n\t\t\t// recive token from sender\n\t\t\tsrcTokenContract.transferFrom(msg.sender, address(this), amount);\n\n\t\t\t// approve srcReserve to spend token\n\t\t\tsrcTokenContract.approve(address(srcReserve), amount);\n\n\t\t\t// Send token to srcReserve and get destToken to Exchange\n\t\t\tuint256 ethRecived = srcReserve.sellToken(amount);\n\n\t\t\t// buy destToken with ETH\n\t\t\tuint256 sendBackAmount = destReserve.buyToken{value: ethRecived}();\n\n\t\t\t// send token from the Exchange to the user\n\t\t\tdestTokenContract.transfer(msg.sender, sendBackAmount);\n\t\t}\n\t}\n\n\tfunction getReserve(address token) public view returns (address) {\n\t\treturn address(reserves[token]);\n\t}\n\n\tfunction getExchangeRate(address srcToken, address destToken) public view returns (uint256) {\n\t\tif (srcToken == ETH_ADDRESS) {\n\t\t\treturn 1e18 * reserves[destToken].getBuyRate();\n\t\t} else if (destToken == ETH_ADDRESS) {\n\t\t\treturn 1e18 / reserves[srcToken].getSellRate();\n\t\t} else {\n\t\t\treturn (1e18 * reserves[srcToken].getSellRate()) / reserves[destToken].getBuyRate();\n\t\t}\n\t}\n\t\n    receive() external payable {}\n}\n",
  "sourcePath": "/home/dan3002/Coding/FUNiX-Swap/contracts/Exchange.sol",
  "compiler": {
    "name": "solc",
    "version": "0.8.0+commit.c7dfd78e.Emscripten.clang"
  },
  "schemaVersion": "3.4.13",
  "updatedAt": "2023-04-24T10:28:18.671Z",
  "networkType": "ethereum",
  "devdoc": {
    "kind": "dev",
    "methods": {},
    "version": 1
  },
  "userdoc": {
    "kind": "user",
    "methods": {},
    "version": 1
  }
}