{
  "contractName": "Reserve",
  "abi": [
    {
      "inputs": [
        {
          "internalType": "address",
          "name": "_supportedToken",
          "type": "address"
        },
        {
          "internalType": "uint256",
          "name": "_buyRate",
          "type": "uint256"
        },
        {
          "internalType": "uint256",
          "name": "_sellRate",
          "type": "uint256"
        }
      ],
      "stateMutability": "nonpayable",
      "type": "constructor"
    },
    {
      "inputs": [],
      "name": "owner",
      "outputs": [
        {
          "internalType": "address",
          "name": "",
          "type": "address"
        }
      ],
      "stateMutability": "view",
      "type": "function",
      "constant": true
    },
    {
      "inputs": [],
      "name": "supportedToken",
      "outputs": [
        {
          "internalType": "contract ERC20",
          "name": "",
          "type": "address"
        }
      ],
      "stateMutability": "view",
      "type": "function",
      "constant": true
    },
    {
      "stateMutability": "payable",
      "type": "receive",
      "payable": true
    },
    {
      "inputs": [
        {
          "internalType": "uint256",
          "name": "_buyRate",
          "type": "uint256"
        }
      ],
      "name": "setBuyRate",
      "outputs": [],
      "stateMutability": "nonpayable",
      "type": "function"
    },
    {
      "inputs": [
        {
          "internalType": "uint256",
          "name": "_sellRate",
          "type": "uint256"
        }
      ],
      "name": "setSellRate",
      "outputs": [],
      "stateMutability": "nonpayable",
      "type": "function"
    },
    {
      "inputs": [],
      "name": "buyToken",
      "outputs": [
        {
          "internalType": "uint256",
          "name": "sendBackAmount",
          "type": "uint256"
        }
      ],
      "stateMutability": "payable",
      "type": "function",
      "payable": true
    },
    {
      "inputs": [
        {
          "internalType": "uint256",
          "name": "sellAmount",
          "type": "uint256"
        }
      ],
      "name": "sellToken",
      "outputs": [
        {
          "internalType": "uint256",
          "name": "sendBackAmount",
          "type": "uint256"
        }
      ],
      "stateMutability": "nonpayable",
      "type": "function"
    },
    {
      "inputs": [],
      "name": "getBuyRate",
      "outputs": [
        {
          "internalType": "uint256",
          "name": "",
          "type": "uint256"
        }
      ],
      "stateMutability": "view",
      "type": "function",
      "constant": true
    },
    {
      "inputs": [],
      "name": "getSellRate",
      "outputs": [
        {
          "internalType": "uint256",
          "name": "",
          "type": "uint256"
        }
      ],
      "stateMutability": "view",
      "type": "function",
      "constant": true
    }
  ],
  "bytecode": "0x60806040523480156200001157600080fd5b506040516200114f3803806200114f8339818101604052810190620000379190620000fd565b826000806101000a81548173ffffffffffffffffffffffffffffffffffffffff021916908373ffffffffffffffffffffffffffffffffffffffff160217905550816001819055508060028190555033600360006101000a81548173ffffffffffffffffffffffffffffffffffffffff021916908373ffffffffffffffffffffffffffffffffffffffff160217905550505050620001c5565b600081519050620000e08162000191565b92915050565b600081519050620000f781620001ab565b92915050565b6000806000606084860312156200011357600080fd5b60006200012386828701620000cf565b93505060206200013686828701620000e6565b92505060406200014986828701620000e6565b9150509250925092565b6000620001608262000167565b9050919050565b600073ffffffffffffffffffffffffffffffffffffffff82169050919050565b6000819050919050565b6200019c8162000153565b8114620001a857600080fd5b50565b620001b68162000187565b8114620001c257600080fd5b50565b610f7a80620001d56000396000f3fe60806040526004361061007f5760003560e01c806385e436bf1161004e57806385e436bf146101495780638da5cb5b146101725780638e0b017d1461019d578063a4821719146101c657610086565b80630ee0599c1461008b578063226fd9eb146100b65780632397e4d7146100e15780633d35d7ba1461011e57610086565b3661008657005b600080fd5b34801561009757600080fd5b506100a06101e4565b6040516100ad9190610c9a565b60405180910390f35b3480156100c257600080fd5b506100cb610208565b6040516100d89190610d95565b60405180910390f35b3480156100ed57600080fd5b5061010860048036038101906101039190610945565b610212565b6040516101159190610d95565b60405180910390f35b34801561012a57600080fd5b50610133610583565b6040516101409190610d95565b60405180910390f35b34801561015557600080fd5b50610170600480360381019061016b9190610945565b61058d565b005b34801561017e57600080fd5b50610187610627565b6040516101949190610bf6565b60405180910390f35b3480156101a957600080fd5b506101c460048036038101906101bf9190610945565b61064d565b005b6101ce6106e7565b6040516101db9190610d95565b60405180910390f35b60008054906101000a900473ffffffffffffffffffffffffffffffffffffffff1681565b6000600254905090565b600080600254836102239190610dc1565b905060008311610268576040517f08c379a000000000000000000000000000000000000000000000000000000000815260040161025f90610d55565b60405180910390fd5b8260008054906101000a900473ffffffffffffffffffffffffffffffffffffffff1673ffffffffffffffffffffffffffffffffffffffff166370a08231336040518263ffffffff1660e01b81526004016102c29190610bf6565b60206040518083038186803b1580156102da57600080fd5b505afa1580156102ee573d6000803e3d6000fd5b505050506040513d601f19601f82011682018060405250810190610312919061096e565b1015610353576040517f08c379a000000000000000000000000000000000000000000000000000000000815260040161034a90610d35565b60405180910390fd5b8260008054906101000a900473ffffffffffffffffffffffffffffffffffffffff1673ffffffffffffffffffffffffffffffffffffffff1663dd62ed3e33306040518363ffffffff1660e01b81526004016103af929190610c11565b60206040518083038186803b1580156103c757600080fd5b505afa1580156103db573d6000803e3d6000fd5b505050506040513d601f19601f820116820180604052508101906103ff919061096e565b1015610440576040517f08c379a000000000000000000000000000000000000000000000000000000000815260040161043790610d15565b60405180910390fd5b80471015610483576040517f08c379a000000000000000000000000000000000000000000000000000000000815260040161047a90610cd5565b60405180910390fd5b60008054906101000a900473ffffffffffffffffffffffffffffffffffffffff1673ffffffffffffffffffffffffffffffffffffffff166323b872dd3330866040518463ffffffff1660e01b81526004016104e093929190610c3a565b602060405180830381600087803b1580156104fa57600080fd5b505af115801561050e573d6000803e3d6000fd5b505050506040513d601f19601f82011682018060405250810190610532919061091c565b503373ffffffffffffffffffffffffffffffffffffffff166108fc829081150290604051600060405180830381858888f19350505050158015610579573d6000803e3d6000fd5b5080915050919050565b6000600154905090565b600360009054906101000a900473ffffffffffffffffffffffffffffffffffffffff1673ffffffffffffffffffffffffffffffffffffffff163373ffffffffffffffffffffffffffffffffffffffff161461061d576040517f08c379a000000000000000000000000000000000000000000000000000000000815260040161061490610cb5565b60405180910390fd5b8060018190555050565b600360009054906101000a900473ffffffffffffffffffffffffffffffffffffffff1681565b600360009054906101000a900473ffffffffffffffffffffffffffffffffffffffff1673ffffffffffffffffffffffffffffffffffffffff163373ffffffffffffffffffffffffffffffffffffffff16146106dd576040517f08c379a00000000000000000000000000000000000000000000000000000000081526004016106d490610cb5565b60405180910390fd5b8060028190555050565b600080341161072b576040517f08c379a000000000000000000000000000000000000000000000000000000000815260040161072290610cf5565b60405180910390fd5b60006001543461073b9190610df2565b90508060008054906101000a900473ffffffffffffffffffffffffffffffffffffffff1673ffffffffffffffffffffffffffffffffffffffff166370a08231306040518263ffffffff1660e01b81526004016107979190610bf6565b60206040518083038186803b1580156107af57600080fd5b505afa1580156107c3573d6000803e3d6000fd5b505050506040513d601f19601f820116820180604052508101906107e7919061096e565b1015610828576040517f08c379a000000000000000000000000000000000000000000000000000000000815260040161081f90610d75565b60405180910390fd5b60008054906101000a900473ffffffffffffffffffffffffffffffffffffffff1673ffffffffffffffffffffffffffffffffffffffff1663a9059cbb33836040518363ffffffff1660e01b8152600401610883929190610c71565b602060405180830381600087803b15801561089d57600080fd5b505af11580156108b1573d6000803e3d6000fd5b505050506040513d601f19601f820116820180604052508101906108d5919061091c565b508091505090565b6000815190506108ec81610f16565b92915050565b60008135905061090181610f2d565b92915050565b60008151905061091681610f2d565b92915050565b60006020828403121561092e57600080fd5b600061093c848285016108dd565b91505092915050565b60006020828403121561095757600080fd5b6000610965848285016108f2565b91505092915050565b60006020828403121561098057600080fd5b600061098e84828501610907565b91505092915050565b6109a081610e4c565b82525050565b6109af81610e94565b82525050565b60006109c2602183610db0565b91507f4f6e6c79206f776e65722063616e2063616c6c20746869732066756e6374696f60008301527f6e000000000000000000000000000000000000000000000000000000000000006020830152604082019050919050565b6000610a28601d83610db0565b91507f4e6f7420656e6f7567682045544820696e2074686520726573657276650000006000830152602082019050919050565b6000610a68601f83610db0565b91507f596f75206d7573742073656e642045544820746f2062757920746f6b656e73006000830152602082019050919050565b6000610aa8602683610db0565b91507f4e6f7420656e6f75676820616c6c6f77616e636520666f72207468697320636f60008301527f6e747261637400000000000000000000000000000000000000000000000000006020830152604082019050919050565b6000610b0e602083610db0565b91507f4e6f7420656e6f75676820746f6b656e20696e20796f7572206163636f756e746000830152602082019050919050565b6000610b4e602183610db0565b91507f596f75206d7573742073656c6c206174206c6561737420736f6d6520746f6b6560008301527f6e000000000000000000000000000000000000000000000000000000000000006020830152604082019050919050565b6000610bb4601f83610db0565b91507f4e6f7420656e6f75676820746f6b656e20696e207468652072657365727665006000830152602082019050919050565b610bf081610e8a565b82525050565b6000602082019050610c0b6000830184610997565b92915050565b6000604082019050610c266000830185610997565b610c336020830184610997565b9392505050565b6000606082019050610c4f6000830186610997565b610c5c6020830185610997565b610c696040830184610be7565b949350505050565b6000604082019050610c866000830185610997565b610c936020830184610be7565b9392505050565b6000602082019050610caf60008301846109a6565b92915050565b60006020820190508181036000830152610cce816109b5565b9050919050565b60006020820190508181036000830152610cee81610a1b565b9050919050565b60006020820190508181036000830152610d0e81610a5b565b9050919050565b60006020820190508181036000830152610d2e81610a9b565b9050919050565b60006020820190508181036000830152610d4e81610b01565b9050919050565b60006020820190508181036000830152610d6e81610b41565b9050919050565b60006020820190508181036000830152610d8e81610ba7565b9050919050565b6000602082019050610daa6000830184610be7565b92915050565b600082825260208201905092915050565b6000610dcc82610e8a565b9150610dd783610e8a565b925082610de757610de6610ee7565b5b828204905092915050565b6000610dfd82610e8a565b9150610e0883610e8a565b9250817fffffffffffffffffffffffffffffffffffffffffffffffffffffffffffffffff0483118215151615610e4157610e40610eb8565b5b828202905092915050565b6000610e5782610e6a565b9050919050565b60008115159050919050565b600073ffffffffffffffffffffffffffffffffffffffff82169050919050565b6000819050919050565b6000610e9f82610ea6565b9050919050565b6000610eb182610e6a565b9050919050565b7f4e487b7100000000000000000000000000000000000000000000000000000000600052601160045260246000fd5b7f4e487b7100000000000000000000000000000000000000000000000000000000600052601260045260246000fd5b610f1f81610e5e565b8114610f2a57600080fd5b50565b610f3681610e8a565b8114610f4157600080fd5b5056fea2646970667358221220206c00f40562db7716dfdf00ad7f2e8fb278842b4f38a4635882a675ecd93e0d64736f6c63430008000033",
  "immutableReferences": {},
  "source": "pragma solidity ^0.8.0;\n\nimport \"@openzeppelin/contracts/token/ERC20/ERC20.sol\";\n\ncontract Reserve {\n    ERC20 public supportedToken;\n    // 1 ETH = buyRate supportedToken\n    uint256 buyRate;\n    // 1 supportedToken = sellRate ETH\n    uint256 sellRate;\n    address public owner;\n\n    constructor(\n        address _supportedToken,\n        uint256 _buyRate,\n        uint256 _sellRate\n    ) public {\n        supportedToken = ERC20(_supportedToken);\n        buyRate = _buyRate;\n        sellRate = _sellRate;\n        owner = msg.sender;\n    }\n\n    function setBuyRate(uint256 _buyRate) public onlyOwner {\n        buyRate = _buyRate;\n    }\n\n    function setSellRate(uint256 _sellRate) public onlyOwner {\n        sellRate = _sellRate;\n    }\n\n    function buyToken() public payable returns (uint256 sendBackAmount){\n        /*\n            Buy supportedToken with ETH\n            => Contract recieves ETH and sends supportedToken\n        */\n        require(msg.value > 0, \"You must send ETH to buy tokens\");\n\n        uint256 tokenAmount = msg.value * buyRate;\n        require(supportedToken.balanceOf(address(this)) >= tokenAmount, \"Not enough token in the reserve\");\n\n        // supportedToken.approve(msg.sender, tokenAmount);\n        supportedToken.transfer(msg.sender, tokenAmount);\n\n        return tokenAmount;\n    }\n\n    function sellToken(uint256 sellAmount) public returns (uint256 sendBackAmount){\n        /*\n            Sell supportedToken for ETH\n            => Contract recieves supportedToken and sends ETH\n        */\n        uint256 ethAmount = sellAmount / sellRate;\n\n        require(sellAmount > 0, \"You must sell at least some token\");\n        require(supportedToken.balanceOf(msg.sender) >= sellAmount, \"Not enough token in your account\");\n        require(supportedToken.allowance(msg.sender, address(this)) >= sellAmount, \"Not enough allowance for this contract\");\n        require(address(this).balance >= ethAmount, \"Not enough ETH in the reserve\");\n\n        supportedToken.transferFrom(msg.sender, address(this), sellAmount);\n        payable(msg.sender).transfer(ethAmount);    \n\n        return ethAmount;\n    }\n\n    function getBuyRate() public view returns (uint256) {\n        return buyRate;\n    }\n\n    function getSellRate() public view returns (uint256) {\n        return sellRate;\n    }\n\n    modifier onlyOwner() {\n        require(msg.sender == owner, \"Only owner can call this function\");\n        _;\n    }\n\n    receive() external payable {}\n}\n",
  "sourcePath": "/home/dan3002/Coding/FUNiX-Swap/contracts/Reserve.sol",
  "compiler": {
    "name": "solc",
    "version": "0.8.0+commit.c7dfd78e.Emscripten.clang"
  },
  "schemaVersion": "3.4.13",
  "updatedAt": "2023-04-25T01:28:17.678Z",
  "networkType": "ethereum",
  "devdoc": {
    "kind": "dev",
    "methods": {},
    "version": 1
  },
  "userdoc": {
    "kind": "user",
    "methods": {},
    "version": 1
  }
}