{
  "contractName": "Reserve",
  "abi": [
    {
      "inputs": [
        {
          "internalType": "address",
          "name": "_supportedToken",
          "type": "address"
        },
        {
          "internalType": "uint256",
          "name": "_buyRate",
          "type": "uint256"
        },
        {
          "internalType": "uint256",
          "name": "_sellRate",
          "type": "uint256"
        }
      ],
      "stateMutability": "nonpayable",
      "type": "constructor"
    },
    {
      "inputs": [],
      "name": "supportedToken",
      "outputs": [
        {
          "internalType": "contract ERC20",
          "name": "",
          "type": "address"
        }
      ],
      "stateMutability": "view",
      "type": "function",
      "constant": true
    },
    {
      "inputs": [
        {
          "internalType": "uint256",
          "name": "_buyRate",
          "type": "uint256"
        }
      ],
      "name": "setBuyRate",
      "outputs": [],
      "stateMutability": "nonpayable",
      "type": "function"
    },
    {
      "inputs": [
        {
          "internalType": "uint256",
          "name": "_sellRate",
          "type": "uint256"
        }
      ],
      "name": "setSellRate",
      "outputs": [],
      "stateMutability": "nonpayable",
      "type": "function"
    },
    {
      "inputs": [
        {
          "internalType": "uint256",
          "name": "_buyRate",
          "type": "uint256"
        },
        {
          "internalType": "uint256",
          "name": "_sellRate",
          "type": "uint256"
        }
      ],
      "name": "setRates",
      "outputs": [],
      "stateMutability": "nonpayable",
      "type": "function"
    },
    {
      "inputs": [],
      "name": "buyToken",
      "outputs": [
        {
          "internalType": "uint256",
          "name": "sendBackAmount",
          "type": "uint256"
        }
      ],
      "stateMutability": "payable",
      "type": "function",
      "payable": true
    },
    {
      "inputs": [
        {
          "internalType": "uint256",
          "name": "sellAmount",
          "type": "uint256"
        }
      ],
      "name": "sellToken",
      "outputs": [
        {
          "internalType": "uint256",
          "name": "sendBackAmount",
          "type": "uint256"
        }
      ],
      "stateMutability": "nonpayable",
      "type": "function"
    },
    {
      "inputs": [
        {
          "internalType": "address",
          "name": "account",
          "type": "address"
        }
      ],
      "name": "balanceOf",
      "outputs": [
        {
          "internalType": "uint256",
          "name": "",
          "type": "uint256"
        }
      ],
      "stateMutability": "view",
      "type": "function",
      "constant": true
    },
    {
      "inputs": [],
      "name": "getBuyRate",
      "outputs": [
        {
          "internalType": "uint256",
          "name": "",
          "type": "uint256"
        }
      ],
      "stateMutability": "view",
      "type": "function",
      "constant": true
    },
    {
      "inputs": [],
      "name": "getSellRate",
      "outputs": [
        {
          "internalType": "uint256",
          "name": "",
          "type": "uint256"
        }
      ],
      "stateMutability": "view",
      "type": "function",
      "constant": true
    }
  ],
  "bytecode": "0x60806040523480156200001157600080fd5b506040516200134a3803806200134a8339818101604052810190620000379190620000fd565b826000806101000a81548173ffffffffffffffffffffffffffffffffffffffff021916908373ffffffffffffffffffffffffffffffffffffffff160217905550816001819055508060028190555033600360006101000a81548173ffffffffffffffffffffffffffffffffffffffff021916908373ffffffffffffffffffffffffffffffffffffffff160217905550505050620001c5565b600081519050620000e08162000191565b92915050565b600081519050620000f781620001ab565b92915050565b6000806000606084860312156200011357600080fd5b60006200012386828701620000cf565b93505060206200013686828701620000e6565b92505060406200014986828701620000e6565b9150509250925092565b6000620001608262000167565b9050919050565b600073ffffffffffffffffffffffffffffffffffffffff82169050919050565b6000819050919050565b6200019c8162000153565b8114620001a857600080fd5b50565b620001b68162000187565b8114620001c257600080fd5b50565b61117580620001d56000396000f3fe6080604052600436106100865760003560e01c806370a082311161005957806370a082311461014957806385e436bf146101865780638e0b017d146101af578063a4821719146101d8578063ac6af280146101f657610086565b80630ee0599c1461008b578063226fd9eb146100b65780632397e4d7146100e15780633d35d7ba1461011e575b600080fd5b34801561009757600080fd5b506100a061021f565b6040516100ad9190610e7e565b60405180910390f35b3480156100c257600080fd5b506100cb610243565b6040516100d89190610f79565b60405180910390f35b3480156100ed57600080fd5b5061010860048036038101906101039190610aed565b61024d565b6040516101159190610f79565b60405180910390f35b34801561012a57600080fd5b506101336105be565b6040516101409190610f79565b60405180910390f35b34801561015557600080fd5b50610170600480360381019061016b9190610a9b565b6105c8565b60405161017d9190610f79565b60405180910390f35b34801561019257600080fd5b506101ad60048036038101906101a89190610aed565b61067b565b005b3480156101bb57600080fd5b506101d660048036038101906101d19190610aed565b610715565b005b6101e06107af565b6040516101ed9190610f79565b60405180910390f35b34801561020257600080fd5b5061021d60048036038101906102189190610b3f565b6109a5565b005b60008054906101000a900473ffffffffffffffffffffffffffffffffffffffff1681565b6000600254905090565b6000806002548361025e9190610fa5565b9050600083116102a3576040517f08c379a000000000000000000000000000000000000000000000000000000000815260040161029a90610f39565b60405180910390fd5b8260008054906101000a900473ffffffffffffffffffffffffffffffffffffffff1673ffffffffffffffffffffffffffffffffffffffff166370a08231336040518263ffffffff1660e01b81526004016102fd9190610dda565b60206040518083038186803b15801561031557600080fd5b505afa158015610329573d6000803e3d6000fd5b505050506040513d601f19601f8201168201806040525081019061034d9190610b16565b101561038e576040517f08c379a000000000000000000000000000000000000000000000000000000000815260040161038590610f19565b60405180910390fd5b8260008054906101000a900473ffffffffffffffffffffffffffffffffffffffff1673ffffffffffffffffffffffffffffffffffffffff1663dd62ed3e33306040518363ffffffff1660e01b81526004016103ea929190610df5565b60206040518083038186803b15801561040257600080fd5b505afa158015610416573d6000803e3d6000fd5b505050506040513d601f19601f8201168201806040525081019061043a9190610b16565b101561047b576040517f08c379a000000000000000000000000000000000000000000000000000000000815260040161047290610ef9565b60405180910390fd5b804710156104be576040517f08c379a00000000000000000000000000000000000000000000000000000000081526004016104b590610eb9565b60405180910390fd5b60008054906101000a900473ffffffffffffffffffffffffffffffffffffffff1673ffffffffffffffffffffffffffffffffffffffff166323b872dd3330866040518463ffffffff1660e01b815260040161051b93929190610e1e565b602060405180830381600087803b15801561053557600080fd5b505af1158015610549573d6000803e3d6000fd5b505050506040513d601f19601f8201168201806040525081019061056d9190610ac4565b503373ffffffffffffffffffffffffffffffffffffffff166108fc829081150290604051600060405180830381858888f193505050501580156105b4573d6000803e3d6000fd5b5080915050919050565b6000600154905090565b60008060009054906101000a900473ffffffffffffffffffffffffffffffffffffffff1673ffffffffffffffffffffffffffffffffffffffff166370a08231836040518263ffffffff1660e01b81526004016106249190610dda565b60206040518083038186803b15801561063c57600080fd5b505afa158015610650573d6000803e3d6000fd5b505050506040513d601f19601f820116820180604052508101906106749190610b16565b9050919050565b600360009054906101000a900473ffffffffffffffffffffffffffffffffffffffff1673ffffffffffffffffffffffffffffffffffffffff163373ffffffffffffffffffffffffffffffffffffffff161461070b576040517f08c379a000000000000000000000000000000000000000000000000000000000815260040161070290610e99565b60405180910390fd5b8060018190555050565b600360009054906101000a900473ffffffffffffffffffffffffffffffffffffffff1673ffffffffffffffffffffffffffffffffffffffff163373ffffffffffffffffffffffffffffffffffffffff16146107a5576040517f08c379a000000000000000000000000000000000000000000000000000000000815260040161079c90610e99565b60405180910390fd5b8060028190555050565b60008034116107f3576040517f08c379a00000000000000000000000000000000000000000000000000000000081526004016107ea90610ed9565b60405180910390fd5b6000600154346108039190610fd6565b90508060008054906101000a900473ffffffffffffffffffffffffffffffffffffffff1673ffffffffffffffffffffffffffffffffffffffff166370a08231306040518263ffffffff1660e01b815260040161085f9190610dda565b60206040518083038186803b15801561087757600080fd5b505afa15801561088b573d6000803e3d6000fd5b505050506040513d601f19601f820116820180604052508101906108af9190610b16565b10156108f0576040517f08c379a00000000000000000000000000000000000000000000000000000000081526004016108e790610f59565b60405180910390fd5b60008054906101000a900473ffffffffffffffffffffffffffffffffffffffff1673ffffffffffffffffffffffffffffffffffffffff1663a9059cbb33836040518363ffffffff1660e01b815260040161094b929190610e55565b602060405180830381600087803b15801561096557600080fd5b505af1158015610979573d6000803e3d6000fd5b505050506040513d601f19601f8201168201806040525081019061099d9190610ac4565b508091505090565b600360009054906101000a900473ffffffffffffffffffffffffffffffffffffffff1673ffffffffffffffffffffffffffffffffffffffff163373ffffffffffffffffffffffffffffffffffffffff1614610a35576040517f08c379a0000000000000000000000000000000000000000000000000000000008152600401610a2c90610e99565b60405180910390fd5b81600181905550806002819055505050565b600081359050610a56816110fa565b92915050565b600081519050610a6b81611111565b92915050565b600081359050610a8081611128565b92915050565b600081519050610a9581611128565b92915050565b600060208284031215610aad57600080fd5b6000610abb84828501610a47565b91505092915050565b600060208284031215610ad657600080fd5b6000610ae484828501610a5c565b91505092915050565b600060208284031215610aff57600080fd5b6000610b0d84828501610a71565b91505092915050565b600060208284031215610b2857600080fd5b6000610b3684828501610a86565b91505092915050565b60008060408385031215610b5257600080fd5b6000610b6085828601610a71565b9250506020610b7185828601610a71565b9150509250929050565b610b8481611030565b82525050565b610b9381611078565b82525050565b6000610ba6602183610f94565b91507f4f6e6c79206f776e65722063616e2063616c6c20746869732066756e6374696f60008301527f6e000000000000000000000000000000000000000000000000000000000000006020830152604082019050919050565b6000610c0c601d83610f94565b91507f4e6f7420656e6f7567682045544820696e2074686520726573657276650000006000830152602082019050919050565b6000610c4c601f83610f94565b91507f596f75206d7573742073656e642045544820746f2062757920746f6b656e73006000830152602082019050919050565b6000610c8c602683610f94565b91507f4e6f7420656e6f75676820616c6c6f77616e636520666f72207468697320636f60008301527f6e747261637400000000000000000000000000000000000000000000000000006020830152604082019050919050565b6000610cf2602083610f94565b91507f4e6f7420656e6f75676820746f6b656e20696e20796f7572206163636f756e746000830152602082019050919050565b6000610d32602183610f94565b91507f596f75206d7573742073656c6c206174206c6561737420736f6d6520746f6b6560008301527f6e000000000000000000000000000000000000000000000000000000000000006020830152604082019050919050565b6000610d98601f83610f94565b91507f4e6f7420656e6f75676820746f6b656e20696e207468652072657365727665006000830152602082019050919050565b610dd48161106e565b82525050565b6000602082019050610def6000830184610b7b565b92915050565b6000604082019050610e0a6000830185610b7b565b610e176020830184610b7b565b9392505050565b6000606082019050610e336000830186610b7b565b610e406020830185610b7b565b610e4d6040830184610dcb565b949350505050565b6000604082019050610e6a6000830185610b7b565b610e776020830184610dcb565b9392505050565b6000602082019050610e936000830184610b8a565b92915050565b60006020820190508181036000830152610eb281610b99565b9050919050565b60006020820190508181036000830152610ed281610bff565b9050919050565b60006020820190508181036000830152610ef281610c3f565b9050919050565b60006020820190508181036000830152610f1281610c7f565b9050919050565b60006020820190508181036000830152610f3281610ce5565b9050919050565b60006020820190508181036000830152610f5281610d25565b9050919050565b60006020820190508181036000830152610f7281610d8b565b9050919050565b6000602082019050610f8e6000830184610dcb565b92915050565b600082825260208201905092915050565b6000610fb08261106e565b9150610fbb8361106e565b925082610fcb57610fca6110cb565b5b828204905092915050565b6000610fe18261106e565b9150610fec8361106e565b9250817fffffffffffffffffffffffffffffffffffffffffffffffffffffffffffffffff04831182151516156110255761102461109c565b5b828202905092915050565b600061103b8261104e565b9050919050565b60008115159050919050565b600073ffffffffffffffffffffffffffffffffffffffff82169050919050565b6000819050919050565b60006110838261108a565b9050919050565b60006110958261104e565b9050919050565b7f4e487b7100000000000000000000000000000000000000000000000000000000600052601160045260246000fd5b7f4e487b7100000000000000000000000000000000000000000000000000000000600052601260045260246000fd5b61110381611030565b811461110e57600080fd5b50565b61111a81611042565b811461112557600080fd5b50565b6111318161106e565b811461113c57600080fd5b5056fea26469706673582212206ce262b88665972476b4d23eca4d7dbec2981abe5b3a180d09c06d12af52f1bc64736f6c63430008000033",
  "immutableReferences": {},
  "source": "pragma solidity ^0.8.0;\n\nimport \"@openzeppelin/contracts/token/ERC20/ERC20.sol\";\n\ncontract Reserve {\n    ERC20 public supportedToken;\n    // 1 ETH = buyRate supportedToken\n    uint256 buyRate;\n    // 1 supportedToken = sellRate ETH\n    uint256 sellRate;\n    address owner;\n\n    constructor(\n        address _supportedToken,\n        uint256 _buyRate,\n        uint256 _sellRate\n    ) public {\n        supportedToken = ERC20(_supportedToken);\n        buyRate = _buyRate;\n        sellRate = _sellRate;\n        owner = msg.sender;\n    }\n\n    function setBuyRate(uint256 _buyRate) public onlyOwner {\n        buyRate = _buyRate;\n    }\n\n    function setSellRate(uint256 _sellRate) public onlyOwner {\n        sellRate = _sellRate;\n    }\n\n    function setRates(uint256 _buyRate, uint256 _sellRate) public onlyOwner {\n        buyRate = _buyRate;\n        sellRate = _sellRate;\n    }\n\n    function buyToken() public payable returns (uint256 sendBackAmount){\n        /*\n            Buy supportedToken with ETH\n            => Contract recieves ETH and sends supportedToken\n        */\n        require(msg.value > 0, \"You must send ETH to buy tokens\");\n\n        uint256 tokenAmount = msg.value * buyRate;\n        require(supportedToken.balanceOf(address(this)) >= tokenAmount, \"Not enough token in the reserve\");\n\n        // supportedToken.approve(msg.sender, tokenAmount);\n        supportedToken.transfer(msg.sender, tokenAmount);\n\n        return tokenAmount;\n    }\n\n    function sellToken(uint256 sellAmount) public returns (uint256 sendBackAmount){\n        /*\n            Sell supportedToken for ETH\n            => Contract recieves supportedToken and sends ETH\n        */\n        uint256 ethAmount = sellAmount / sellRate;\n\n        require(sellAmount > 0, \"You must sell at least some token\");\n        require(supportedToken.balanceOf(msg.sender) >= sellAmount, \"Not enough token in your account\");\n        require(supportedToken.allowance(msg.sender, address(this)) >= sellAmount, \"Not enough allowance for this contract\");\n        require(address(this).balance >= ethAmount, \"Not enough ETH in the reserve\");\n\n        supportedToken.transferFrom(msg.sender, address(this), sellAmount);\n        payable(msg.sender).transfer(ethAmount);    \n\n        return ethAmount;\n    }\n\n    // Check balance supportedToken of account\n    function balanceOf(address account) public view returns (uint256) {\n        return supportedToken.balanceOf(account);\n    }\n\n    function getBuyRate() public view returns (uint256) {\n        return buyRate;\n    }\n\n    function getSellRate() public view returns (uint256) {\n        return sellRate;\n    }\n\n    modifier onlyOwner() {\n        require(msg.sender == owner, \"Only owner can call this function\");\n        _;\n    }\n}\n",
  "sourcePath": "/home/dan3002/Coding/FUNiX-Swap/contracts/Reserve.sol",
  "compiler": {
    "name": "solc",
    "version": "0.8.0+commit.c7dfd78e.Emscripten.clang"
  },
  "schemaVersion": "3.4.13",
  "updatedAt": "2023-04-24T06:36:40.045Z",
  "networkType": "ethereum",
  "devdoc": {
    "kind": "dev",
    "methods": {},
    "version": 1
  },
  "userdoc": {
    "kind": "user",
    "methods": {},
    "version": 1
  }
}